{"contracts/Raffle.sol":{"Raffle":{"abi":[{"inputs":[{"internalType":"uint256","name":"enteranceFee","type":"uint256"},{"internalType":"address","name":"_VRFCoordinator","type":"address"},{"internalType":"bytes32","name":"gasLane","type":"bytes32"},{"internalType":"uint64","name":"subscriptionId","type":"uint64"},{"internalType":"uint32","name":"callbackGasLimit","type":"uint32"},{"internalType":"uint256","name":"interval","type":"uint256"}],"stateMutability":"nonpayable","type":"constructor"},{"inputs":[{"internalType":"address","name":"have","type":"address"},{"internalType":"address","name":"want","type":"address"}],"name":"OnlyCoordinatorCanFulfill","type":"error"},{"inputs":[],"name":"Raffle__LotteryNotOpen","type":"error"},{"inputs":[],"name":"Raffle__NotEnoughEthEntered","type":"error"},{"inputs":[],"name":"Raffle__TransferFailed","type":"error"},{"anonymous":false,"inputs":[{"indexed":true,"internalType":"address","name":"player","type":"address"}],"name":"RaffleEntered","type":"event"},{"anonymous":false,"inputs":[{"indexed":true,"internalType":"uint256","name":"requestId","type":"uint256"}],"name":"RequestedRaffleWinner","type":"event"},{"anonymous":false,"inputs":[{"indexed":true,"internalType":"address","name":"winner","type":"address"}],"name":"WinnerPicked","type":"event"},{"inputs":[{"internalType":"bytes","name":"","type":"bytes"}],"name":"checkUpkeep","outputs":[{"internalType":"bool","name":"upkeepNeeded","type":"bool"},{"internalType":"bytes","name":"","type":"bytes"}],"stateMutability":"view","type":"function"},{"inputs":[],"name":"enterRaffle","outputs":[],"stateMutability":"payable","type":"function"},{"inputs":[],"name":"getEnteranceFee","outputs":[{"internalType":"uint256","name":"","type":"uint256"}],"stateMutability":"view","type":"function"},{"inputs":[{"internalType":"uint256","name":"index","type":"uint256"}],"name":"getPlayer","outputs":[{"internalType":"address","name":"","type":"address"}],"stateMutability":"view","type":"function"},{"inputs":[],"name":"getRecentWinner","outputs":[{"internalType":"address","name":"","type":"address"}],"stateMutability":"view","type":"function"},{"inputs":[{"internalType":"bytes","name":"","type":"bytes"}],"name":"performUpkeep","outputs":[],"stateMutability":"nonpayable","type":"function"},{"inputs":[{"internalType":"uint256","name":"requestId","type":"uint256"},{"internalType":"uint256[]","name":"randomWords","type":"uint256[]"}],"name":"rawFulfillRandomWords","outputs":[],"stateMutability":"nonpayable","type":"function"}],"devdoc":{"kind":"dev","methods":{"checkUpkeep(bytes)":{"details":"This function is called by chainlink keeper node so this funtion runs offchain"}},"version":1},"evm":{"bytecode":{"linkReferences":{},"object":"6101606040523480156200001257600080fd5b506040516200141238038062001412833981810160405281019062000038919062000294565b848073ffffffffffffffffffffffffffffffffffffffff1660808173ffffffffffffffffffffffffffffffffffffffff1681525050508560a081815250508473ffffffffffffffffffffffffffffffffffffffff1660c08173ffffffffffffffffffffffffffffffffffffffff16815250508360e081815250508267ffffffffffffffff166101008167ffffffffffffffff16815250508163ffffffff166101208163ffffffff16815250506000600160006101000a81548160ff021916908360018111156200010d576200010c62000330565b5b0217905550426002819055508061014081815250505050505050506200035f565b600080fd5b6000819050919050565b620001488162000133565b81146200015457600080fd5b50565b60008151905062000168816200013d565b92915050565b600073ffffffffffffffffffffffffffffffffffffffff82169050919050565b60006200019b826200016e565b9050919050565b620001ad816200018e565b8114620001b957600080fd5b50565b600081519050620001cd81620001a2565b92915050565b6000819050919050565b620001e881620001d3565b8114620001f457600080fd5b50565b6000815190506200020881620001dd565b92915050565b600067ffffffffffffffff82169050919050565b6200022d816200020e565b81146200023957600080fd5b50565b6000815190506200024d8162000222565b92915050565b600063ffffffff82169050919050565b6200026e8162000253565b81146200027a57600080fd5b50565b6000815190506200028e8162000263565b92915050565b60008060008060008060c08789031215620002b457620002b36200012e565b5b6000620002c489828a0162000157565b9650506020620002d789828a01620001bc565b9550506040620002ea89828a01620001f7565b9450506060620002fd89828a016200023c565b93505060806200031089828a016200027d565b92505060a06200032389828a0162000157565b9150509295509295509295565b7f4e487b7100000000000000000000000000000000000000000000000000000000600052602160045260246000fd5b60805160a05160c05160e05161010051610120516101405161104a620003c860003960006105c9015260006104550152600061043201526000610411015260006103d501526000818161026401526105630152600081816101a401526101f8015261104a6000f3fe6080604052600436106100705760003560e01c8063473f1ddc1161004e578063473f1ddc146100d1578063535bf50f146100fc5780636e04ff0d14610127578063e55ae4e81461016557610070565b80631fe543e3146100755780632cfcc5391461009e5780634585e33b146100a8575b600080fd5b34801561008157600080fd5b5061009c60048036038101906100979190610af6565b6101a2565b005b6100a6610262565b005b3480156100b457600080fd5b506100cf60048036038101906100ca9190610bad565b6103d1565b005b3480156100dd57600080fd5b506100e6610537565b6040516100f39190610c3b565b60405180910390f35b34801561010857600080fd5b5061011161055f565b60405161011e9190610c65565b60405180910390f35b34801561013357600080fd5b5061014e60048036038101906101499190610bad565b610587565b60405161015c929190610d1a565b60405180910390f35b34801561017157600080fd5b5061018c60048036038101906101879190610d4a565b610635565b6040516101999190610c3b565b60405180910390f35b7f000000000000000000000000000000000000000000000000000000000000000073ffffffffffffffffffffffffffffffffffffffff163373ffffffffffffffffffffffffffffffffffffffff161461025457337f00000000000000000000000000000000000000000000000000000000000000006040517f1cf993f400000000000000000000000000000000000000000000000000000000815260040161024b929190610d77565b60405180910390fd5b61025e828261067c565b5050565b7f00000000000000000000000000000000000000000000000000000000000000003410156102bc576040517f066d781f00000000000000000000000000000000000000000000000000000000815260040160405180910390fd5b600060018111156102d0576102cf610da0565b5b600160009054906101000a900460ff1660018111156102f2576102f1610da0565b5b14610329576040517f9a54bc8300000000000000000000000000000000000000000000000000000000815260040160405180910390fd5b6000339080600181540180825580915050600190039060005260206000200160009091909190916101000a81548173ffffffffffffffffffffffffffffffffffffffff021916908373ffffffffffffffffffffffffffffffffffffffff1602179055503373ffffffffffffffffffffffffffffffffffffffff167f634f3211e3a4e43fee5a21ad9f87ca153b300fc78b1c557a2057dbe9c63bcb4760405160405180910390a2565b60007f000000000000000000000000000000000000000000000000000000000000000073ffffffffffffffffffffffffffffffffffffffff16635d3b1d307f00000000000000000000000000000000000000000000000000000000000000007f000000000000000000000000000000000000000000000000000000000000000060037f000000000000000000000000000000000000000000000000000000000000000060016040518663ffffffff1660e01b8152600401610496959493929190610e47565b6020604051808303816000875af11580156104b5573d6000803e3d6000fd5b505050506040513d601f19601f820116820180604052508101906104d99190610eaf565b905060018060006101000a81548160ff02191690836001811115610500576104ff610da0565b5b0217905550807fcd6e45c8998311cab7e9d4385596cac867e20a0587194b954fa3a731c93ce78b60405160405180910390a2505050565b600060018054906101000a900473ffffffffffffffffffffffffffffffffffffffff16905090565b60007f0000000000000000000000000000000000000000000000000000000000000000905090565b6000606060008060018111156105a05761059f610da0565b5b600160009054906101000a900460ff1660018111156105c2576105c1610da0565b5b14905060007f0000000000000000000000000000000000000000000000000000000000000000600254426105f69190610f0b565b119050600080600080549050119050600080471190508380156106165750825b801561061f5750805b80156106285750815b9550505050509250929050565b600080828154811061064a57610649610f3f565b5b9060005260206000200160009054906101000a900473ffffffffffffffffffffffffffffffffffffffff169050919050565b600080805490508260008151811061069757610696610f3f565b5b60200260200101516106a99190610f9d565b905060008082815481106106c0576106bf610f3f565b5b9060005260206000200160009054906101000a900473ffffffffffffffffffffffffffffffffffffffff169050806001806101000a81548173ffffffffffffffffffffffffffffffffffffffff021916908373ffffffffffffffffffffffffffffffffffffffff160217905550600067ffffffffffffffff811115610748576107476109b3565b5b6040519080825280602002602001820160405280156107765781602001602082028036833780820191505090505b506000908051906020019061078c9291906108ac565b504260028190555060008173ffffffffffffffffffffffffffffffffffffffff16476040516107ba90610fff565b60006040518083038185875af1925050503d80600081146107f7576040519150601f19603f3d011682016040523d82523d6000602084013e6107fc565b606091505b5050905080610837576040517fa1d04b3900000000000000000000000000000000000000000000000000000000815260040160405180910390fd5b6000600160006101000a81548160ff0219169083600181111561085d5761085c610da0565b5b02179055508173ffffffffffffffffffffffffffffffffffffffff167f5b690ec4a06fe979403046eaeea5b3ce38524683c3001f662c8b5a829632f7df60405160405180910390a25050505050565b828054828255906000526020600020908101928215610925579160200282015b828111156109245782518260006101000a81548173ffffffffffffffffffffffffffffffffffffffff021916908373ffffffffffffffffffffffffffffffffffffffff160217905550916020019190600101906108cc565b5b5090506109329190610936565b5090565b5b8082111561094f576000816000905550600101610937565b5090565b6000604051905090565b600080fd5b600080fd5b6000819050919050565b61097a81610967565b811461098557600080fd5b50565b60008135905061099781610971565b92915050565b600080fd5b6000601f19601f8301169050919050565b7f4e487b7100000000000000000000000000000000000000000000000000000000600052604160045260246000fd5b6109eb826109a2565b810181811067ffffffffffffffff82111715610a0a57610a096109b3565b5b80604052505050565b6000610a1d610953565b9050610a2982826109e2565b919050565b600067ffffffffffffffff821115610a4957610a486109b3565b5b602082029050602081019050919050565b600080fd5b6000610a72610a6d84610a2e565b610a13565b90508083825260208201905060208402830185811115610a9557610a94610a5a565b5b835b81811015610abe5780610aaa8882610988565b845260208401935050602081019050610a97565b5050509392505050565b600082601f830112610add57610adc61099d565b5b8135610aed848260208601610a5f565b91505092915050565b60008060408385031215610b0d57610b0c61095d565b5b6000610b1b85828601610988565b925050602083013567ffffffffffffffff811115610b3c57610b3b610962565b5b610b4885828601610ac8565b9150509250929050565b600080fd5b60008083601f840112610b6d57610b6c61099d565b5b8235905067ffffffffffffffff811115610b8a57610b89610b52565b5b602083019150836001820283011115610ba657610ba5610a5a565b5b9250929050565b60008060208385031215610bc457610bc361095d565b5b600083013567ffffffffffffffff811115610be257610be1610962565b5b610bee85828601610b57565b92509250509250929050565b600073ffffffffffffffffffffffffffffffffffffffff82169050919050565b6000610c2582610bfa565b9050919050565b610c3581610c1a565b82525050565b6000602082019050610c506000830184610c2c565b92915050565b610c5f81610967565b82525050565b6000602082019050610c7a6000830184610c56565b92915050565b60008115159050919050565b610c9581610c80565b82525050565b600081519050919050565b600082825260208201905092915050565b60005b83811015610cd5578082015181840152602081019050610cba565b60008484015250505050565b6000610cec82610c9b565b610cf68185610ca6565b9350610d06818560208601610cb7565b610d0f816109a2565b840191505092915050565b6000604082019050610d2f6000830185610c8c565b8181036020830152610d418184610ce1565b90509392505050565b600060208284031215610d6057610d5f61095d565b5b6000610d6e84828501610988565b91505092915050565b6000604082019050610d8c6000830185610c2c565b610d996020830184610c2c565b9392505050565b7f4e487b7100000000000000000000000000000000000000000000000000000000600052602160045260246000fd5b6000819050919050565b610de281610dcf565b82525050565b600067ffffffffffffffff82169050919050565b610e0581610de8565b82525050565b600061ffff82169050919050565b610e2281610e0b565b82525050565b600063ffffffff82169050919050565b610e4181610e28565b82525050565b600060a082019050610e5c6000830188610dd9565b610e696020830187610dfc565b610e766040830186610e19565b610e836060830185610e38565b610e906080830184610e38565b9695505050505050565b600081519050610ea981610971565b92915050565b600060208284031215610ec557610ec461095d565b5b6000610ed384828501610e9a565b91505092915050565b7f4e487b7100000000000000000000000000000000000000000000000000000000600052601160045260246000fd5b6000610f1682610967565b9150610f2183610967565b9250828203905081811115610f3957610f38610edc565b5b92915050565b7f4e487b7100000000000000000000000000000000000000000000000000000000600052603260045260246000fd5b7f4e487b7100000000000000000000000000000000000000000000000000000000600052601260045260246000fd5b6000610fa882610967565b9150610fb383610967565b925082610fc357610fc2610f6e565b5b828206905092915050565b600081905092915050565b50565b6000610fe9600083610fce565b9150610ff482610fd9565b600082019050919050565b600061100a82610fdc565b915081905091905056fea2646970667358221220616259a1e5f9cf9cb84ebb92865a0a5bc3d91fa9e0fc0af4d04f0e36e69956d664736f6c63430008130033","opcodes":"PUSH2 0x160 PUSH1 0x40 MSTORE CALLVALUE DUP1 ISZERO PUSH3 0x12 JUMPI PUSH1 0x0 DUP1 REVERT JUMPDEST POP PUSH1 0x40 MLOAD PUSH3 0x1412 CODESIZE SUB DUP1 PUSH3 0x1412 DUP4 CODECOPY DUP2 DUP2 ADD PUSH1 0x40 MSTORE DUP2 ADD SWAP1 PUSH3 0x38 SWAP2 SWAP1 PUSH3 0x294 JUMP JUMPDEST DUP5 DUP1 PUSH20 0xFFFFFFFFFFFFFFFFFFFFFFFFFFFFFFFFFFFFFFFF AND PUSH1 0x80 DUP2 PUSH20 0xFFFFFFFFFFFFFFFFFFFFFFFFFFFFFFFFFFFFFFFF AND DUP2 MSTORE POP POP POP DUP6 PUSH1 0xA0 DUP2 DUP2 MSTORE POP POP DUP5 PUSH20 0xFFFFFFFFFFFFFFFFFFFFFFFFFFFFFFFFFFFFFFFF AND PUSH1 0xC0 DUP2 PUSH20 0xFFFFFFFFFFFFFFFFFFFFFFFFFFFFFFFFFFFFFFFF AND DUP2 MSTORE POP POP DUP4 PUSH1 0xE0 DUP2 DUP2 MSTORE POP POP DUP3 PUSH8 0xFFFFFFFFFFFFFFFF AND PUSH2 0x100 DUP2 PUSH8 0xFFFFFFFFFFFFFFFF AND DUP2 MSTORE POP POP DUP2 PUSH4 0xFFFFFFFF AND PUSH2 0x120 DUP2 PUSH4 0xFFFFFFFF AND DUP2 MSTORE POP POP PUSH1 0x0 PUSH1 0x1 PUSH1 0x0 PUSH2 0x100 EXP DUP2 SLOAD DUP2 PUSH1 0xFF MUL NOT AND SWAP1 DUP4 PUSH1 0x1 DUP2 GT ISZERO PUSH3 0x10D JUMPI PUSH3 0x10C PUSH3 0x330 JUMP JUMPDEST JUMPDEST MUL OR SWAP1 SSTORE POP TIMESTAMP PUSH1 0x2 DUP2 SWAP1 SSTORE POP DUP1 PUSH2 0x140 DUP2 DUP2 MSTORE POP POP POP POP POP POP POP POP PUSH3 0x35F JUMP JUMPDEST PUSH1 0x0 DUP1 REVERT JUMPDEST PUSH1 0x0 DUP2 SWAP1 POP SWAP2 SWAP1 POP JUMP JUMPDEST PUSH3 0x148 DUP2 PUSH3 0x133 JUMP JUMPDEST DUP2 EQ PUSH3 0x154 JUMPI PUSH1 0x0 DUP1 REVERT JUMPDEST POP JUMP JUMPDEST PUSH1 0x0 DUP2 MLOAD SWAP1 POP PUSH3 0x168 DUP2 PUSH3 0x13D JUMP JUMPDEST SWAP3 SWAP2 POP POP JUMP JUMPDEST PUSH1 0x0 PUSH20 0xFFFFFFFFFFFFFFFFFFFFFFFFFFFFFFFFFFFFFFFF DUP3 AND SWAP1 POP SWAP2 SWAP1 POP JUMP JUMPDEST PUSH1 0x0 PUSH3 0x19B DUP3 PUSH3 0x16E JUMP JUMPDEST SWAP1 POP SWAP2 SWAP1 POP JUMP JUMPDEST PUSH3 0x1AD DUP2 PUSH3 0x18E JUMP JUMPDEST DUP2 EQ PUSH3 0x1B9 JUMPI PUSH1 0x0 DUP1 REVERT JUMPDEST POP JUMP JUMPDEST PUSH1 0x0 DUP2 MLOAD SWAP1 POP PUSH3 0x1CD DUP2 PUSH3 0x1A2 JUMP JUMPDEST SWAP3 SWAP2 POP POP JUMP JUMPDEST PUSH1 0x0 DUP2 SWAP1 POP SWAP2 SWAP1 POP JUMP JUMPDEST PUSH3 0x1E8 DUP2 PUSH3 0x1D3 JUMP JUMPDEST DUP2 EQ PUSH3 0x1F4 JUMPI PUSH1 0x0 DUP1 REVERT JUMPDEST POP JUMP JUMPDEST PUSH1 0x0 DUP2 MLOAD SWAP1 POP PUSH3 0x208 DUP2 PUSH3 0x1DD JUMP JUMPDEST SWAP3 SWAP2 POP POP JUMP JUMPDEST PUSH1 0x0 PUSH8 0xFFFFFFFFFFFFFFFF DUP3 AND SWAP1 POP SWAP2 SWAP1 POP JUMP JUMPDEST PUSH3 0x22D DUP2 PUSH3 0x20E JUMP JUMPDEST DUP2 EQ PUSH3 0x239 JUMPI PUSH1 0x0 DUP1 REVERT JUMPDEST POP JUMP JUMPDEST PUSH1 0x0 DUP2 MLOAD SWAP1 POP PUSH3 0x24D DUP2 PUSH3 0x222 JUMP JUMPDEST SWAP3 SWAP2 POP POP JUMP JUMPDEST PUSH1 0x0 PUSH4 0xFFFFFFFF DUP3 AND SWAP1 POP SWAP2 SWAP1 POP JUMP JUMPDEST PUSH3 0x26E DUP2 PUSH3 0x253 JUMP JUMPDEST DUP2 EQ PUSH3 0x27A JUMPI PUSH1 0x0 DUP1 REVERT JUMPDEST POP JUMP JUMPDEST PUSH1 0x0 DUP2 MLOAD SWAP1 POP PUSH3 0x28E DUP2 PUSH3 0x263 JUMP JUMPDEST SWAP3 SWAP2 POP POP JUMP JUMPDEST PUSH1 0x0 DUP1 PUSH1 0x0 DUP1 PUSH1 0x0 DUP1 PUSH1 0xC0 DUP8 DUP10 SUB SLT ISZERO PUSH3 0x2B4 JUMPI PUSH3 0x2B3 PUSH3 0x12E JUMP JUMPDEST JUMPDEST PUSH1 0x0 PUSH3 0x2C4 DUP10 DUP3 DUP11 ADD PUSH3 0x157 JUMP JUMPDEST SWAP7 POP POP PUSH1 0x20 PUSH3 0x2D7 DUP10 DUP3 DUP11 ADD PUSH3 0x1BC JUMP JUMPDEST SWAP6 POP POP PUSH1 0x40 PUSH3 0x2EA DUP10 DUP3 DUP11 ADD PUSH3 0x1F7 JUMP JUMPDEST SWAP5 POP POP PUSH1 0x60 PUSH3 0x2FD DUP10 DUP3 DUP11 ADD PUSH3 0x23C JUMP JUMPDEST SWAP4 POP POP PUSH1 0x80 PUSH3 0x310 DUP10 DUP3 DUP11 ADD PUSH3 0x27D JUMP JUMPDEST SWAP3 POP POP PUSH1 0xA0 PUSH3 0x323 DUP10 DUP3 DUP11 ADD PUSH3 0x157 JUMP JUMPDEST SWAP2 POP POP SWAP3 SWAP6 POP SWAP3 SWAP6 POP SWAP3 SWAP6 JUMP JUMPDEST PUSH32 0x4E487B7100000000000000000000000000000000000000000000000000000000 PUSH1 0x0 MSTORE PUSH1 0x21 PUSH1 0x4 MSTORE PUSH1 0x24 PUSH1 0x0 REVERT JUMPDEST PUSH1 0x80 MLOAD PUSH1 0xA0 MLOAD PUSH1 0xC0 MLOAD PUSH1 0xE0 MLOAD PUSH2 0x100 MLOAD PUSH2 0x120 MLOAD PUSH2 0x140 MLOAD PUSH2 0x104A PUSH3 0x3C8 PUSH1 0x0 CODECOPY PUSH1 0x0 PUSH2 0x5C9 ADD MSTORE PUSH1 0x0 PUSH2 0x455 ADD MSTORE PUSH1 0x0 PUSH2 0x432 ADD MSTORE PUSH1 0x0 PUSH2 0x411 ADD MSTORE PUSH1 0x0 PUSH2 0x3D5 ADD MSTORE PUSH1 0x0 DUP2 DUP2 PUSH2 0x264 ADD MSTORE PUSH2 0x563 ADD MSTORE PUSH1 0x0 DUP2 DUP2 PUSH2 0x1A4 ADD MSTORE PUSH2 0x1F8 ADD MSTORE PUSH2 0x104A PUSH1 0x0 RETURN INVALID PUSH1 0x80 PUSH1 0x40 MSTORE PUSH1 0x4 CALLDATASIZE LT PUSH2 0x70 JUMPI PUSH1 0x0 CALLDATALOAD PUSH1 0xE0 SHR DUP1 PUSH4 0x473F1DDC GT PUSH2 0x4E JUMPI DUP1 PUSH4 0x473F1DDC EQ PUSH2 0xD1 JUMPI DUP1 PUSH4 0x535BF50F EQ PUSH2 0xFC JUMPI DUP1 PUSH4 0x6E04FF0D EQ PUSH2 0x127 JUMPI DUP1 PUSH4 0xE55AE4E8 EQ PUSH2 0x165 JUMPI PUSH2 0x70 JUMP JUMPDEST DUP1 PUSH4 0x1FE543E3 EQ PUSH2 0x75 JUMPI DUP1 PUSH4 0x2CFCC539 EQ PUSH2 0x9E JUMPI DUP1 PUSH4 0x4585E33B EQ PUSH2 0xA8 JUMPI JUMPDEST PUSH1 0x0 DUP1 REVERT JUMPDEST CALLVALUE DUP1 ISZERO PUSH2 0x81 JUMPI PUSH1 0x0 DUP1 REVERT JUMPDEST POP PUSH2 0x9C PUSH1 0x4 DUP1 CALLDATASIZE SUB DUP2 ADD SWAP1 PUSH2 0x97 SWAP2 SWAP1 PUSH2 0xAF6 JUMP JUMPDEST PUSH2 0x1A2 JUMP JUMPDEST STOP JUMPDEST PUSH2 0xA6 PUSH2 0x262 JUMP JUMPDEST STOP JUMPDEST CALLVALUE DUP1 ISZERO PUSH2 0xB4 JUMPI PUSH1 0x0 DUP1 REVERT JUMPDEST POP PUSH2 0xCF PUSH1 0x4 DUP1 CALLDATASIZE SUB DUP2 ADD SWAP1 PUSH2 0xCA SWAP2 SWAP1 PUSH2 0xBAD JUMP JUMPDEST PUSH2 0x3D1 JUMP JUMPDEST STOP JUMPDEST CALLVALUE DUP1 ISZERO PUSH2 0xDD JUMPI PUSH1 0x0 DUP1 REVERT JUMPDEST POP PUSH2 0xE6 PUSH2 0x537 JUMP JUMPDEST PUSH1 0x40 MLOAD PUSH2 0xF3 SWAP2 SWAP1 PUSH2 0xC3B JUMP JUMPDEST PUSH1 0x40 MLOAD DUP1 SWAP2 SUB SWAP1 RETURN JUMPDEST CALLVALUE DUP1 ISZERO PUSH2 0x108 JUMPI PUSH1 0x0 DUP1 REVERT JUMPDEST POP PUSH2 0x111 PUSH2 0x55F JUMP JUMPDEST PUSH1 0x40 MLOAD PUSH2 0x11E SWAP2 SWAP1 PUSH2 0xC65 JUMP JUMPDEST PUSH1 0x40 MLOAD DUP1 SWAP2 SUB SWAP1 RETURN JUMPDEST CALLVALUE DUP1 ISZERO PUSH2 0x133 JUMPI PUSH1 0x0 DUP1 REVERT JUMPDEST POP PUSH2 0x14E PUSH1 0x4 DUP1 CALLDATASIZE SUB DUP2 ADD SWAP1 PUSH2 0x149 SWAP2 SWAP1 PUSH2 0xBAD JUMP JUMPDEST PUSH2 0x587 JUMP JUMPDEST PUSH1 0x40 MLOAD PUSH2 0x15C SWAP3 SWAP2 SWAP1 PUSH2 0xD1A JUMP JUMPDEST PUSH1 0x40 MLOAD DUP1 SWAP2 SUB SWAP1 RETURN JUMPDEST CALLVALUE DUP1 ISZERO PUSH2 0x171 JUMPI PUSH1 0x0 DUP1 REVERT JUMPDEST POP PUSH2 0x18C PUSH1 0x4 DUP1 CALLDATASIZE SUB DUP2 ADD SWAP1 PUSH2 0x187 SWAP2 SWAP1 PUSH2 0xD4A JUMP JUMPDEST PUSH2 0x635 JUMP JUMPDEST PUSH1 0x40 MLOAD PUSH2 0x199 SWAP2 SWAP1 PUSH2 0xC3B JUMP JUMPDEST PUSH1 0x40 MLOAD DUP1 SWAP2 SUB SWAP1 RETURN JUMPDEST PUSH32 0x0 PUSH20 0xFFFFFFFFFFFFFFFFFFFFFFFFFFFFFFFFFFFFFFFF AND CALLER PUSH20 0xFFFFFFFFFFFFFFFFFFFFFFFFFFFFFFFFFFFFFFFF AND EQ PUSH2 0x254 JUMPI CALLER PUSH32 0x0 PUSH1 0x40 MLOAD PUSH32 0x1CF993F400000000000000000000000000000000000000000000000000000000 DUP2 MSTORE PUSH1 0x4 ADD PUSH2 0x24B SWAP3 SWAP2 SWAP1 PUSH2 0xD77 JUMP JUMPDEST PUSH1 0x40 MLOAD DUP1 SWAP2 SUB SWAP1 REVERT JUMPDEST PUSH2 0x25E DUP3 DUP3 PUSH2 0x67C JUMP JUMPDEST POP POP JUMP JUMPDEST PUSH32 0x0 CALLVALUE LT ISZERO PUSH2 0x2BC JUMPI PUSH1 0x40 MLOAD PUSH32 0x66D781F00000000000000000000000000000000000000000000000000000000 DUP2 MSTORE PUSH1 0x4 ADD PUSH1 0x40 MLOAD DUP1 SWAP2 SUB SWAP1 REVERT JUMPDEST PUSH1 0x0 PUSH1 0x1 DUP2 GT ISZERO PUSH2 0x2D0 JUMPI PUSH2 0x2CF PUSH2 0xDA0 JUMP JUMPDEST JUMPDEST PUSH1 0x1 PUSH1 0x0 SWAP1 SLOAD SWAP1 PUSH2 0x100 EXP SWAP1 DIV PUSH1 0xFF AND PUSH1 0x1 DUP2 GT ISZERO PUSH2 0x2F2 JUMPI PUSH2 0x2F1 PUSH2 0xDA0 JUMP JUMPDEST JUMPDEST EQ PUSH2 0x329 JUMPI PUSH1 0x40 MLOAD PUSH32 0x9A54BC8300000000000000000000000000000000000000000000000000000000 DUP2 MSTORE PUSH1 0x4 ADD PUSH1 0x40 MLOAD DUP1 SWAP2 SUB SWAP1 REVERT JUMPDEST PUSH1 0x0 CALLER SWAP1 DUP1 PUSH1 0x1 DUP2 SLOAD ADD DUP1 DUP3 SSTORE DUP1 SWAP2 POP POP PUSH1 0x1 SWAP1 SUB SWAP1 PUSH1 0x0 MSTORE PUSH1 0x20 PUSH1 0x0 KECCAK256 ADD PUSH1 0x0 SWAP1 SWAP2 SWAP1 SWAP2 SWAP1 SWAP2 PUSH2 0x100 EXP DUP2 SLOAD DUP2 PUSH20 0xFFFFFFFFFFFFFFFFFFFFFFFFFFFFFFFFFFFFFFFF MUL NOT AND SWAP1 DUP4 PUSH20 0xFFFFFFFFFFFFFFFFFFFFFFFFFFFFFFFFFFFFFFFF AND MUL OR SWAP1 SSTORE POP CALLER PUSH20 0xFFFFFFFFFFFFFFFFFFFFFFFFFFFFFFFFFFFFFFFF AND PUSH32 0x634F3211E3A4E43FEE5A21AD9F87CA153B300FC78B1C557A2057DBE9C63BCB47 PUSH1 0x40 MLOAD PUSH1 0x40 MLOAD DUP1 SWAP2 SUB SWAP1 LOG2 JUMP JUMPDEST PUSH1 0x0 PUSH32 0x0 PUSH20 0xFFFFFFFFFFFFFFFFFFFFFFFFFFFFFFFFFFFFFFFF AND PUSH4 0x5D3B1D30 PUSH32 0x0 PUSH32 0x0 PUSH1 0x3 PUSH32 0x0 PUSH1 0x1 PUSH1 0x40 MLOAD DUP7 PUSH4 0xFFFFFFFF AND PUSH1 0xE0 SHL DUP2 MSTORE PUSH1 0x4 ADD PUSH2 0x496 SWAP6 SWAP5 SWAP4 SWAP3 SWAP2 SWAP1 PUSH2 0xE47 JUMP JUMPDEST PUSH1 0x20 PUSH1 0x40 MLOAD DUP1 DUP4 SUB DUP2 PUSH1 0x0 DUP8 GAS CALL ISZERO DUP1 ISZERO PUSH2 0x4B5 JUMPI RETURNDATASIZE PUSH1 0x0 DUP1 RETURNDATACOPY RETURNDATASIZE PUSH1 0x0 REVERT JUMPDEST POP POP POP POP PUSH1 0x40 MLOAD RETURNDATASIZE PUSH1 0x1F NOT PUSH1 0x1F DUP3 ADD AND DUP3 ADD DUP1 PUSH1 0x40 MSTORE POP DUP2 ADD SWAP1 PUSH2 0x4D9 SWAP2 SWAP1 PUSH2 0xEAF JUMP JUMPDEST SWAP1 POP PUSH1 0x1 DUP1 PUSH1 0x0 PUSH2 0x100 EXP DUP2 SLOAD DUP2 PUSH1 0xFF MUL NOT AND SWAP1 DUP4 PUSH1 0x1 DUP2 GT ISZERO PUSH2 0x500 JUMPI PUSH2 0x4FF PUSH2 0xDA0 JUMP JUMPDEST JUMPDEST MUL OR SWAP1 SSTORE POP DUP1 PUSH32 0xCD6E45C8998311CAB7E9D4385596CAC867E20A0587194B954FA3A731C93CE78B PUSH1 0x40 MLOAD PUSH1 0x40 MLOAD DUP1 SWAP2 SUB SWAP1 LOG2 POP POP POP JUMP JUMPDEST PUSH1 0x0 PUSH1 0x1 DUP1 SLOAD SWAP1 PUSH2 0x100 EXP SWAP1 DIV PUSH20 0xFFFFFFFFFFFFFFFFFFFFFFFFFFFFFFFFFFFFFFFF AND SWAP1 POP SWAP1 JUMP JUMPDEST PUSH1 0x0 PUSH32 0x0 SWAP1 POP SWAP1 JUMP JUMPDEST PUSH1 0x0 PUSH1 0x60 PUSH1 0x0 DUP1 PUSH1 0x1 DUP2 GT ISZERO PUSH2 0x5A0 JUMPI PUSH2 0x59F PUSH2 0xDA0 JUMP JUMPDEST JUMPDEST PUSH1 0x1 PUSH1 0x0 SWAP1 SLOAD SWAP1 PUSH2 0x100 EXP SWAP1 DIV PUSH1 0xFF AND PUSH1 0x1 DUP2 GT ISZERO PUSH2 0x5C2 JUMPI PUSH2 0x5C1 PUSH2 0xDA0 JUMP JUMPDEST JUMPDEST EQ SWAP1 POP PUSH1 0x0 PUSH32 0x0 PUSH1 0x2 SLOAD TIMESTAMP PUSH2 0x5F6 SWAP2 SWAP1 PUSH2 0xF0B JUMP JUMPDEST GT SWAP1 POP PUSH1 0x0 DUP1 PUSH1 0x0 DUP1 SLOAD SWAP1 POP GT SWAP1 POP PUSH1 0x0 DUP1 SELFBALANCE GT SWAP1 POP DUP4 DUP1 ISZERO PUSH2 0x616 JUMPI POP DUP3 JUMPDEST DUP1 ISZERO PUSH2 0x61F JUMPI POP DUP1 JUMPDEST DUP1 ISZERO PUSH2 0x628 JUMPI POP DUP2 JUMPDEST SWAP6 POP POP POP POP POP SWAP3 POP SWAP3 SWAP1 POP JUMP JUMPDEST PUSH1 0x0 DUP1 DUP3 DUP2 SLOAD DUP2 LT PUSH2 0x64A JUMPI PUSH2 0x649 PUSH2 0xF3F JUMP JUMPDEST JUMPDEST SWAP1 PUSH1 0x0 MSTORE PUSH1 0x20 PUSH1 0x0 KECCAK256 ADD PUSH1 0x0 SWAP1 SLOAD SWAP1 PUSH2 0x100 EXP SWAP1 DIV PUSH20 0xFFFFFFFFFFFFFFFFFFFFFFFFFFFFFFFFFFFFFFFF AND SWAP1 POP SWAP2 SWAP1 POP JUMP JUMPDEST PUSH1 0x0 DUP1 DUP1 SLOAD SWAP1 POP DUP3 PUSH1 0x0 DUP2 MLOAD DUP2 LT PUSH2 0x697 JUMPI PUSH2 0x696 PUSH2 0xF3F JUMP JUMPDEST JUMPDEST PUSH1 0x20 MUL PUSH1 0x20 ADD ADD MLOAD PUSH2 0x6A9 SWAP2 SWAP1 PUSH2 0xF9D JUMP JUMPDEST SWAP1 POP PUSH1 0x0 DUP1 DUP3 DUP2 SLOAD DUP2 LT PUSH2 0x6C0 JUMPI PUSH2 0x6BF PUSH2 0xF3F JUMP JUMPDEST JUMPDEST SWAP1 PUSH1 0x0 MSTORE PUSH1 0x20 PUSH1 0x0 KECCAK256 ADD PUSH1 0x0 SWAP1 SLOAD SWAP1 PUSH2 0x100 EXP SWAP1 DIV PUSH20 0xFFFFFFFFFFFFFFFFFFFFFFFFFFFFFFFFFFFFFFFF AND SWAP1 POP DUP1 PUSH1 0x1 DUP1 PUSH2 0x100 EXP DUP2 SLOAD DUP2 PUSH20 0xFFFFFFFFFFFFFFFFFFFFFFFFFFFFFFFFFFFFFFFF MUL NOT AND SWAP1 DUP4 PUSH20 0xFFFFFFFFFFFFFFFFFFFFFFFFFFFFFFFFFFFFFFFF AND MUL OR SWAP1 SSTORE POP PUSH1 0x0 PUSH8 0xFFFFFFFFFFFFFFFF DUP2 GT ISZERO PUSH2 0x748 JUMPI PUSH2 0x747 PUSH2 0x9B3 JUMP JUMPDEST JUMPDEST PUSH1 0x40 MLOAD SWAP1 DUP1 DUP3 MSTORE DUP1 PUSH1 0x20 MUL PUSH1 0x20 ADD DUP3 ADD PUSH1 0x40 MSTORE DUP1 ISZERO PUSH2 0x776 JUMPI DUP2 PUSH1 0x20 ADD PUSH1 0x20 DUP3 MUL DUP1 CALLDATASIZE DUP4 CALLDATACOPY DUP1 DUP3 ADD SWAP2 POP POP SWAP1 POP JUMPDEST POP PUSH1 0x0 SWAP1 DUP1 MLOAD SWAP1 PUSH1 0x20 ADD SWAP1 PUSH2 0x78C SWAP3 SWAP2 SWAP1 PUSH2 0x8AC JUMP JUMPDEST POP TIMESTAMP PUSH1 0x2 DUP2 SWAP1 SSTORE POP PUSH1 0x0 DUP2 PUSH20 0xFFFFFFFFFFFFFFFFFFFFFFFFFFFFFFFFFFFFFFFF AND SELFBALANCE PUSH1 0x40 MLOAD PUSH2 0x7BA SWAP1 PUSH2 0xFFF JUMP JUMPDEST PUSH1 0x0 PUSH1 0x40 MLOAD DUP1 DUP4 SUB DUP2 DUP6 DUP8 GAS CALL SWAP3 POP POP POP RETURNDATASIZE DUP1 PUSH1 0x0 DUP2 EQ PUSH2 0x7F7 JUMPI PUSH1 0x40 MLOAD SWAP2 POP PUSH1 0x1F NOT PUSH1 0x3F RETURNDATASIZE ADD AND DUP3 ADD PUSH1 0x40 MSTORE RETURNDATASIZE DUP3 MSTORE RETURNDATASIZE PUSH1 0x0 PUSH1 0x20 DUP5 ADD RETURNDATACOPY PUSH2 0x7FC JUMP JUMPDEST PUSH1 0x60 SWAP2 POP JUMPDEST POP POP SWAP1 POP DUP1 PUSH2 0x837 JUMPI PUSH1 0x40 MLOAD PUSH32 0xA1D04B3900000000000000000000000000000000000000000000000000000000 DUP2 MSTORE PUSH1 0x4 ADD PUSH1 0x40 MLOAD DUP1 SWAP2 SUB SWAP1 REVERT JUMPDEST PUSH1 0x0 PUSH1 0x1 PUSH1 0x0 PUSH2 0x100 EXP DUP2 SLOAD DUP2 PUSH1 0xFF MUL NOT AND SWAP1 DUP4 PUSH1 0x1 DUP2 GT ISZERO PUSH2 0x85D JUMPI PUSH2 0x85C PUSH2 0xDA0 JUMP JUMPDEST JUMPDEST MUL OR SWAP1 SSTORE POP DUP2 PUSH20 0xFFFFFFFFFFFFFFFFFFFFFFFFFFFFFFFFFFFFFFFF AND PUSH32 0x5B690EC4A06FE979403046EAEEA5B3CE38524683C3001F662C8B5A829632F7DF PUSH1 0x40 MLOAD PUSH1 0x40 MLOAD DUP1 SWAP2 SUB SWAP1 LOG2 POP POP POP POP POP JUMP JUMPDEST DUP3 DUP1 SLOAD DUP3 DUP3 SSTORE SWAP1 PUSH1 0x0 MSTORE PUSH1 0x20 PUSH1 0x0 KECCAK256 SWAP1 DUP2 ADD SWAP3 DUP3 ISZERO PUSH2 0x925 JUMPI SWAP2 PUSH1 0x20 MUL DUP3 ADD JUMPDEST DUP3 DUP2 GT ISZERO PUSH2 0x924 JUMPI DUP3 MLOAD DUP3 PUSH1 0x0 PUSH2 0x100 EXP DUP2 SLOAD DUP2 PUSH20 0xFFFFFFFFFFFFFFFFFFFFFFFFFFFFFFFFFFFFFFFF MUL NOT AND SWAP1 DUP4 PUSH20 0xFFFFFFFFFFFFFFFFFFFFFFFFFFFFFFFFFFFFFFFF AND MUL OR SWAP1 SSTORE POP SWAP2 PUSH1 0x20 ADD SWAP2 SWAP1 PUSH1 0x1 ADD SWAP1 PUSH2 0x8CC JUMP JUMPDEST JUMPDEST POP SWAP1 POP PUSH2 0x932 SWAP2 SWAP1 PUSH2 0x936 JUMP JUMPDEST POP SWAP1 JUMP JUMPDEST JUMPDEST DUP1 DUP3 GT ISZERO PUSH2 0x94F JUMPI PUSH1 0x0 DUP2 PUSH1 0x0 SWAP1 SSTORE POP PUSH1 0x1 ADD PUSH2 0x937 JUMP JUMPDEST POP SWAP1 JUMP JUMPDEST PUSH1 0x0 PUSH1 0x40 MLOAD SWAP1 POP SWAP1 JUMP JUMPDEST PUSH1 0x0 DUP1 REVERT JUMPDEST PUSH1 0x0 DUP1 REVERT JUMPDEST PUSH1 0x0 DUP2 SWAP1 POP SWAP2 SWAP1 POP JUMP JUMPDEST PUSH2 0x97A DUP2 PUSH2 0x967 JUMP JUMPDEST DUP2 EQ PUSH2 0x985 JUMPI PUSH1 0x0 DUP1 REVERT JUMPDEST POP JUMP JUMPDEST PUSH1 0x0 DUP2 CALLDATALOAD SWAP1 POP PUSH2 0x997 DUP2 PUSH2 0x971 JUMP JUMPDEST SWAP3 SWAP2 POP POP JUMP JUMPDEST PUSH1 0x0 DUP1 REVERT JUMPDEST PUSH1 0x0 PUSH1 0x1F NOT PUSH1 0x1F DUP4 ADD AND SWAP1 POP SWAP2 SWAP1 POP JUMP JUMPDEST PUSH32 0x4E487B7100000000000000000000000000000000000000000000000000000000 PUSH1 0x0 MSTORE PUSH1 0x41 PUSH1 0x4 MSTORE PUSH1 0x24 PUSH1 0x0 REVERT JUMPDEST PUSH2 0x9EB DUP3 PUSH2 0x9A2 JUMP JUMPDEST DUP2 ADD DUP2 DUP2 LT PUSH8 0xFFFFFFFFFFFFFFFF DUP3 GT OR ISZERO PUSH2 0xA0A JUMPI PUSH2 0xA09 PUSH2 0x9B3 JUMP JUMPDEST JUMPDEST DUP1 PUSH1 0x40 MSTORE POP POP POP JUMP JUMPDEST PUSH1 0x0 PUSH2 0xA1D PUSH2 0x953 JUMP JUMPDEST SWAP1 POP PUSH2 0xA29 DUP3 DUP3 PUSH2 0x9E2 JUMP JUMPDEST SWAP2 SWAP1 POP JUMP JUMPDEST PUSH1 0x0 PUSH8 0xFFFFFFFFFFFFFFFF DUP3 GT ISZERO PUSH2 0xA49 JUMPI PUSH2 0xA48 PUSH2 0x9B3 JUMP JUMPDEST JUMPDEST PUSH1 0x20 DUP3 MUL SWAP1 POP PUSH1 0x20 DUP2 ADD SWAP1 POP SWAP2 SWAP1 POP JUMP JUMPDEST PUSH1 0x0 DUP1 REVERT JUMPDEST PUSH1 0x0 PUSH2 0xA72 PUSH2 0xA6D DUP5 PUSH2 0xA2E JUMP JUMPDEST PUSH2 0xA13 JUMP JUMPDEST SWAP1 POP DUP1 DUP4 DUP3 MSTORE PUSH1 0x20 DUP3 ADD SWAP1 POP PUSH1 0x20 DUP5 MUL DUP4 ADD DUP6 DUP2 GT ISZERO PUSH2 0xA95 JUMPI PUSH2 0xA94 PUSH2 0xA5A JUMP JUMPDEST JUMPDEST DUP4 JUMPDEST DUP2 DUP2 LT ISZERO PUSH2 0xABE JUMPI DUP1 PUSH2 0xAAA DUP9 DUP3 PUSH2 0x988 JUMP JUMPDEST DUP5 MSTORE PUSH1 0x20 DUP5 ADD SWAP4 POP POP PUSH1 0x20 DUP2 ADD SWAP1 POP PUSH2 0xA97 JUMP JUMPDEST POP POP POP SWAP4 SWAP3 POP POP POP JUMP JUMPDEST PUSH1 0x0 DUP3 PUSH1 0x1F DUP4 ADD SLT PUSH2 0xADD JUMPI PUSH2 0xADC PUSH2 0x99D JUMP JUMPDEST JUMPDEST DUP2 CALLDATALOAD PUSH2 0xAED DUP5 DUP3 PUSH1 0x20 DUP7 ADD PUSH2 0xA5F JUMP JUMPDEST SWAP2 POP POP SWAP3 SWAP2 POP POP JUMP JUMPDEST PUSH1 0x0 DUP1 PUSH1 0x40 DUP4 DUP6 SUB SLT ISZERO PUSH2 0xB0D JUMPI PUSH2 0xB0C PUSH2 0x95D JUMP JUMPDEST JUMPDEST PUSH1 0x0 PUSH2 0xB1B DUP6 DUP3 DUP7 ADD PUSH2 0x988 JUMP JUMPDEST SWAP3 POP POP PUSH1 0x20 DUP4 ADD CALLDATALOAD PUSH8 0xFFFFFFFFFFFFFFFF DUP2 GT ISZERO PUSH2 0xB3C JUMPI PUSH2 0xB3B PUSH2 0x962 JUMP JUMPDEST JUMPDEST PUSH2 0xB48 DUP6 DUP3 DUP7 ADD PUSH2 0xAC8 JUMP JUMPDEST SWAP2 POP POP SWAP3 POP SWAP3 SWAP1 POP JUMP JUMPDEST PUSH1 0x0 DUP1 REVERT JUMPDEST PUSH1 0x0 DUP1 DUP4 PUSH1 0x1F DUP5 ADD SLT PUSH2 0xB6D JUMPI PUSH2 0xB6C PUSH2 0x99D JUMP JUMPDEST JUMPDEST DUP3 CALLDATALOAD SWAP1 POP PUSH8 0xFFFFFFFFFFFFFFFF DUP2 GT ISZERO PUSH2 0xB8A JUMPI PUSH2 0xB89 PUSH2 0xB52 JUMP JUMPDEST JUMPDEST PUSH1 0x20 DUP4 ADD SWAP2 POP DUP4 PUSH1 0x1 DUP3 MUL DUP4 ADD GT ISZERO PUSH2 0xBA6 JUMPI PUSH2 0xBA5 PUSH2 0xA5A JUMP JUMPDEST JUMPDEST SWAP3 POP SWAP3 SWAP1 POP JUMP JUMPDEST PUSH1 0x0 DUP1 PUSH1 0x20 DUP4 DUP6 SUB SLT ISZERO PUSH2 0xBC4 JUMPI PUSH2 0xBC3 PUSH2 0x95D JUMP JUMPDEST JUMPDEST PUSH1 0x0 DUP4 ADD CALLDATALOAD PUSH8 0xFFFFFFFFFFFFFFFF DUP2 GT ISZERO PUSH2 0xBE2 JUMPI PUSH2 0xBE1 PUSH2 0x962 JUMP JUMPDEST JUMPDEST PUSH2 0xBEE DUP6 DUP3 DUP7 ADD PUSH2 0xB57 JUMP JUMPDEST SWAP3 POP SWAP3 POP POP SWAP3 POP SWAP3 SWAP1 POP JUMP JUMPDEST PUSH1 0x0 PUSH20 0xFFFFFFFFFFFFFFFFFFFFFFFFFFFFFFFFFFFFFFFF DUP3 AND SWAP1 POP SWAP2 SWAP1 POP JUMP JUMPDEST PUSH1 0x0 PUSH2 0xC25 DUP3 PUSH2 0xBFA JUMP JUMPDEST SWAP1 POP SWAP2 SWAP1 POP JUMP JUMPDEST PUSH2 0xC35 DUP2 PUSH2 0xC1A JUMP JUMPDEST DUP3 MSTORE POP POP JUMP JUMPDEST PUSH1 0x0 PUSH1 0x20 DUP3 ADD SWAP1 POP PUSH2 0xC50 PUSH1 0x0 DUP4 ADD DUP5 PUSH2 0xC2C JUMP JUMPDEST SWAP3 SWAP2 POP POP JUMP JUMPDEST PUSH2 0xC5F DUP2 PUSH2 0x967 JUMP JUMPDEST DUP3 MSTORE POP POP JUMP JUMPDEST PUSH1 0x0 PUSH1 0x20 DUP3 ADD SWAP1 POP PUSH2 0xC7A PUSH1 0x0 DUP4 ADD DUP5 PUSH2 0xC56 JUMP JUMPDEST SWAP3 SWAP2 POP POP JUMP JUMPDEST PUSH1 0x0 DUP2 ISZERO ISZERO SWAP1 POP SWAP2 SWAP1 POP JUMP JUMPDEST PUSH2 0xC95 DUP2 PUSH2 0xC80 JUMP JUMPDEST DUP3 MSTORE POP POP JUMP JUMPDEST PUSH1 0x0 DUP2 MLOAD SWAP1 POP SWAP2 SWAP1 POP JUMP JUMPDEST PUSH1 0x0 DUP3 DUP3 MSTORE PUSH1 0x20 DUP3 ADD SWAP1 POP SWAP3 SWAP2 POP POP JUMP JUMPDEST PUSH1 0x0 JUMPDEST DUP4 DUP2 LT ISZERO PUSH2 0xCD5 JUMPI DUP1 DUP3 ADD MLOAD DUP2 DUP5 ADD MSTORE PUSH1 0x20 DUP2 ADD SWAP1 POP PUSH2 0xCBA JUMP JUMPDEST PUSH1 0x0 DUP5 DUP5 ADD MSTORE POP POP POP POP JUMP JUMPDEST PUSH1 0x0 PUSH2 0xCEC DUP3 PUSH2 0xC9B JUMP JUMPDEST PUSH2 0xCF6 DUP2 DUP6 PUSH2 0xCA6 JUMP JUMPDEST SWAP4 POP PUSH2 0xD06 DUP2 DUP6 PUSH1 0x20 DUP7 ADD PUSH2 0xCB7 JUMP JUMPDEST PUSH2 0xD0F DUP2 PUSH2 0x9A2 JUMP JUMPDEST DUP5 ADD SWAP2 POP POP SWAP3 SWAP2 POP POP JUMP JUMPDEST PUSH1 0x0 PUSH1 0x40 DUP3 ADD SWAP1 POP PUSH2 0xD2F PUSH1 0x0 DUP4 ADD DUP6 PUSH2 0xC8C JUMP JUMPDEST DUP2 DUP2 SUB PUSH1 0x20 DUP4 ADD MSTORE PUSH2 0xD41 DUP2 DUP5 PUSH2 0xCE1 JUMP JUMPDEST SWAP1 POP SWAP4 SWAP3 POP POP POP JUMP JUMPDEST PUSH1 0x0 PUSH1 0x20 DUP3 DUP5 SUB SLT ISZERO PUSH2 0xD60 JUMPI PUSH2 0xD5F PUSH2 0x95D JUMP JUMPDEST JUMPDEST PUSH1 0x0 PUSH2 0xD6E DUP5 DUP3 DUP6 ADD PUSH2 0x988 JUMP JUMPDEST SWAP2 POP POP SWAP3 SWAP2 POP POP JUMP JUMPDEST PUSH1 0x0 PUSH1 0x40 DUP3 ADD SWAP1 POP PUSH2 0xD8C PUSH1 0x0 DUP4 ADD DUP6 PUSH2 0xC2C JUMP JUMPDEST PUSH2 0xD99 PUSH1 0x20 DUP4 ADD DUP5 PUSH2 0xC2C JUMP JUMPDEST SWAP4 SWAP3 POP POP POP JUMP JUMPDEST PUSH32 0x4E487B7100000000000000000000000000000000000000000000000000000000 PUSH1 0x0 MSTORE PUSH1 0x21 PUSH1 0x4 MSTORE PUSH1 0x24 PUSH1 0x0 REVERT JUMPDEST PUSH1 0x0 DUP2 SWAP1 POP SWAP2 SWAP1 POP JUMP JUMPDEST PUSH2 0xDE2 DUP2 PUSH2 0xDCF JUMP JUMPDEST DUP3 MSTORE POP POP JUMP JUMPDEST PUSH1 0x0 PUSH8 0xFFFFFFFFFFFFFFFF DUP3 AND SWAP1 POP SWAP2 SWAP1 POP JUMP JUMPDEST PUSH2 0xE05 DUP2 PUSH2 0xDE8 JUMP JUMPDEST DUP3 MSTORE POP POP JUMP JUMPDEST PUSH1 0x0 PUSH2 0xFFFF DUP3 AND SWAP1 POP SWAP2 SWAP1 POP JUMP JUMPDEST PUSH2 0xE22 DUP2 PUSH2 0xE0B JUMP JUMPDEST DUP3 MSTORE POP POP JUMP JUMPDEST PUSH1 0x0 PUSH4 0xFFFFFFFF DUP3 AND SWAP1 POP SWAP2 SWAP1 POP JUMP JUMPDEST PUSH2 0xE41 DUP2 PUSH2 0xE28 JUMP JUMPDEST DUP3 MSTORE POP POP JUMP JUMPDEST PUSH1 0x0 PUSH1 0xA0 DUP3 ADD SWAP1 POP PUSH2 0xE5C PUSH1 0x0 DUP4 ADD DUP9 PUSH2 0xDD9 JUMP JUMPDEST PUSH2 0xE69 PUSH1 0x20 DUP4 ADD DUP8 PUSH2 0xDFC JUMP JUMPDEST PUSH2 0xE76 PUSH1 0x40 DUP4 ADD DUP7 PUSH2 0xE19 JUMP JUMPDEST PUSH2 0xE83 PUSH1 0x60 DUP4 ADD DUP6 PUSH2 0xE38 JUMP JUMPDEST PUSH2 0xE90 PUSH1 0x80 DUP4 ADD DUP5 PUSH2 0xE38 JUMP JUMPDEST SWAP7 SWAP6 POP POP POP POP POP POP JUMP JUMPDEST PUSH1 0x0 DUP2 MLOAD SWAP1 POP PUSH2 0xEA9 DUP2 PUSH2 0x971 JUMP JUMPDEST SWAP3 SWAP2 POP POP JUMP JUMPDEST PUSH1 0x0 PUSH1 0x20 DUP3 DUP5 SUB SLT ISZERO PUSH2 0xEC5 JUMPI PUSH2 0xEC4 PUSH2 0x95D JUMP JUMPDEST JUMPDEST PUSH1 0x0 PUSH2 0xED3 DUP5 DUP3 DUP6 ADD PUSH2 0xE9A JUMP JUMPDEST SWAP2 POP POP SWAP3 SWAP2 POP POP JUMP JUMPDEST PUSH32 0x4E487B7100000000000000000000000000000000000000000000000000000000 PUSH1 0x0 MSTORE PUSH1 0x11 PUSH1 0x4 MSTORE PUSH1 0x24 PUSH1 0x0 REVERT JUMPDEST PUSH1 0x0 PUSH2 0xF16 DUP3 PUSH2 0x967 JUMP JUMPDEST SWAP2 POP PUSH2 0xF21 DUP4 PUSH2 0x967 JUMP JUMPDEST SWAP3 POP DUP3 DUP3 SUB SWAP1 POP DUP2 DUP2 GT ISZERO PUSH2 0xF39 JUMPI PUSH2 0xF38 PUSH2 0xEDC JUMP JUMPDEST JUMPDEST SWAP3 SWAP2 POP POP JUMP JUMPDEST PUSH32 0x4E487B7100000000000000000000000000000000000000000000000000000000 PUSH1 0x0 MSTORE PUSH1 0x32 PUSH1 0x4 MSTORE PUSH1 0x24 PUSH1 0x0 REVERT JUMPDEST PUSH32 0x4E487B7100000000000000000000000000000000000000000000000000000000 PUSH1 0x0 MSTORE PUSH1 0x12 PUSH1 0x4 MSTORE PUSH1 0x24 PUSH1 0x0 REVERT JUMPDEST PUSH1 0x0 PUSH2 0xFA8 DUP3 PUSH2 0x967 JUMP JUMPDEST SWAP2 POP PUSH2 0xFB3 DUP4 PUSH2 0x967 JUMP JUMPDEST SWAP3 POP DUP3 PUSH2 0xFC3 JUMPI PUSH2 0xFC2 PUSH2 0xF6E JUMP JUMPDEST JUMPDEST DUP3 DUP3 MOD SWAP1 POP SWAP3 SWAP2 POP POP JUMP JUMPDEST PUSH1 0x0 DUP2 SWAP1 POP SWAP3 SWAP2 POP POP JUMP JUMPDEST POP JUMP JUMPDEST PUSH1 0x0 PUSH2 0xFE9 PUSH1 0x0 DUP4 PUSH2 0xFCE JUMP JUMPDEST SWAP2 POP PUSH2 0xFF4 DUP3 PUSH2 0xFD9 JUMP JUMPDEST PUSH1 0x0 DUP3 ADD SWAP1 POP SWAP2 SWAP1 POP JUMP JUMPDEST PUSH1 0x0 PUSH2 0x100A DUP3 PUSH2 0xFDC JUMP JUMPDEST SWAP2 POP DUP2 SWAP1 POP SWAP2 SWAP1 POP JUMP INVALID LOG2 PUSH5 0x6970667358 0x22 SLT KECCAK256 PUSH2 0x6259 LOG1 0xE5 0xF9 0xCF SWAP13 0xB8 0x4E 0xBB SWAP3 DUP7 GAS EXP JUMPDEST 0xC3 0xD9 0x1F 0xA9 0xE0 0xFC EXP DELEGATECALL 0xD0 0x4F 0xE CALLDATASIZE 0xE6 SWAP10 JUMP 0xD6 PUSH5 0x736F6C6343 STOP ADDMOD SGT STOP CALLER "},"gasEstimates":{"creation":{"codeDepositCost":"834000","executionCost":"infinite","totalCost":"infinite"},"external":{"checkUpkeep(bytes)":"infinite","enterRaffle()":"infinite","getEnteranceFee()":"infinite","getPlayer(uint256)":"5033","getRecentWinner()":"2569","performUpkeep(bytes)":"infinite","rawFulfillRandomWords(uint256,uint256[])":"infinite"},"internal":{"fulfillRandomWords(uint256,uint256[] memory)":"infinite"}},"methodIdentifiers":{"checkUpkeep(bytes)":"6e04ff0d","enterRaffle()":"2cfcc539","getEnteranceFee()":"535bf50f","getPlayer(uint256)":"e55ae4e8","getRecentWinner()":"473f1ddc","performUpkeep(bytes)":"4585e33b","rawFulfillRandomWords(uint256,uint256[])":"1fe543e3"}},"storageLayout":{"storage":[{"astId":234,"contract":"contracts/Raffle.sol:Raffle","label":"s_players","offset":0,"slot":"0","type":"t_array(t_address_payable)dyn_storage"},{"astId":252,"contract":"contracts/Raffle.sol:Raffle","label":"s_raffleState","offset":0,"slot":"1","type":"t_enum(RaffleState)229"},{"astId":254,"contract":"contracts/Raffle.sol:Raffle","label":"s_recentWinner","offset":1,"slot":"1","type":"t_address"},{"astId":256,"contract":"contracts/Raffle.sol:Raffle","label":"s_lastTimeStamp","offset":0,"slot":"2","type":"t_uint256"}],"types":{"t_address":{"encoding":"inplace","label":"address","numberOfBytes":"20"},"t_address_payable":{"encoding":"inplace","label":"address payable","numberOfBytes":"20"},"t_array(t_address_payable)dyn_storage":{"base":"t_address_payable","encoding":"dynamic_array","label":"address payable[]","numberOfBytes":"32"},"t_enum(RaffleState)229":{"encoding":"inplace","label":"enum Raffle.RaffleState","numberOfBytes":"1"},"t_uint256":{"encoding":"inplace","label":"uint256","numberOfBytes":"32"}}},"userdoc":{"kind":"user","methods":{},"version":1}}}}