{
  "_format": "hh-sol-artifact-1",
  "contractName": "Raffle",
  "sourceName": "contracts/Raffle.sol",
  "abi": [
    {
      "inputs": [
        {
          "internalType": "address",
          "name": "_VRFCoordinator",
          "type": "address"
        },
        {
          "internalType": "uint256",
          "name": "enteranceFee",
          "type": "uint256"
        },
        {
          "internalType": "bytes32",
          "name": "gasLane",
          "type": "bytes32"
        },
        {
          "internalType": "uint64",
          "name": "subscriptionId",
          "type": "uint64"
        },
        {
          "internalType": "uint32",
          "name": "callbackGasLimit",
          "type": "uint32"
        },
        {
          "internalType": "uint256",
          "name": "interval",
          "type": "uint256"
        }
      ],
      "stateMutability": "nonpayable",
      "type": "constructor"
    },
    {
      "inputs": [
        {
          "internalType": "address",
          "name": "have",
          "type": "address"
        },
        {
          "internalType": "address",
          "name": "want",
          "type": "address"
        }
      ],
      "name": "OnlyCoordinatorCanFulfill",
      "type": "error"
    },
    {
      "inputs": [],
      "name": "Raffle__LotteryNotOpen",
      "type": "error"
    },
    {
      "inputs": [],
      "name": "Raffle__NotEnoughEthEntered",
      "type": "error"
    },
    {
      "inputs": [],
      "name": "Raffle__TransferFailed",
      "type": "error"
    },
    {
      "inputs": [
        {
          "internalType": "uint256",
          "name": "currentBalance",
          "type": "uint256"
        },
        {
          "internalType": "uint256",
          "name": "numPlayers",
          "type": "uint256"
        },
        {
          "internalType": "uint256",
          "name": "raffleState",
          "type": "uint256"
        }
      ],
      "name": "Raffle__UpKeepNotNeeded",
      "type": "error"
    },
    {
      "anonymous": false,
      "inputs": [
        {
          "indexed": true,
          "internalType": "address",
          "name": "player",
          "type": "address"
        }
      ],
      "name": "RaffleEntered",
      "type": "event"
    },
    {
      "anonymous": false,
      "inputs": [
        {
          "indexed": true,
          "internalType": "uint256",
          "name": "requestId",
          "type": "uint256"
        }
      ],
      "name": "RequestedRaffleWinner",
      "type": "event"
    },
    {
      "anonymous": false,
      "inputs": [
        {
          "indexed": true,
          "internalType": "address",
          "name": "winner",
          "type": "address"
        }
      ],
      "name": "WinnerPicked",
      "type": "event"
    },
    {
      "inputs": [
        {
          "internalType": "bytes",
          "name": "",
          "type": "bytes"
        }
      ],
      "name": "checkUpkeep",
      "outputs": [
        {
          "internalType": "bool",
          "name": "upkeepNeeded",
          "type": "bool"
        },
        {
          "internalType": "bytes",
          "name": "",
          "type": "bytes"
        }
      ],
      "stateMutability": "view",
      "type": "function"
    },
    {
      "inputs": [],
      "name": "enterRaffle",
      "outputs": [],
      "stateMutability": "payable",
      "type": "function"
    },
    {
      "inputs": [],
      "name": "getEnteranceFee",
      "outputs": [
        {
          "internalType": "uint256",
          "name": "",
          "type": "uint256"
        }
      ],
      "stateMutability": "view",
      "type": "function"
    },
    {
      "inputs": [],
      "name": "getLatestTimeStamp",
      "outputs": [
        {
          "internalType": "uint256",
          "name": "",
          "type": "uint256"
        }
      ],
      "stateMutability": "view",
      "type": "function"
    },
    {
      "inputs": [],
      "name": "getNumWords",
      "outputs": [
        {
          "internalType": "uint32",
          "name": "",
          "type": "uint32"
        }
      ],
      "stateMutability": "pure",
      "type": "function"
    },
    {
      "inputs": [
        {
          "internalType": "uint256",
          "name": "index",
          "type": "uint256"
        }
      ],
      "name": "getPlayer",
      "outputs": [
        {
          "internalType": "address",
          "name": "",
          "type": "address"
        }
      ],
      "stateMutability": "view",
      "type": "function"
    },
    {
      "inputs": [],
      "name": "getRaffleState",
      "outputs": [
        {
          "internalType": "enum Raffle.RaffleState",
          "name": "",
          "type": "uint8"
        }
      ],
      "stateMutability": "view",
      "type": "function"
    },
    {
      "inputs": [],
      "name": "getRecentWinner",
      "outputs": [
        {
          "internalType": "address",
          "name": "",
          "type": "address"
        }
      ],
      "stateMutability": "view",
      "type": "function"
    },
    {
      "inputs": [
        {
          "internalType": "bytes",
          "name": "",
          "type": "bytes"
        }
      ],
      "name": "performUpkeep",
      "outputs": [],
      "stateMutability": "nonpayable",
      "type": "function"
    },
    {
      "inputs": [
        {
          "internalType": "uint256",
          "name": "requestId",
          "type": "uint256"
        },
        {
          "internalType": "uint256[]",
          "name": "randomWords",
          "type": "uint256[]"
        }
      ],
      "name": "rawFulfillRandomWords",
      "outputs": [],
      "stateMutability": "nonpayable",
      "type": "function"
    }
  ],
  "bytecode": "0x6101606040523480156200001257600080fd5b506040516200172e3803806200172e833981810160405281019062000038919062000294565b858073ffffffffffffffffffffffffffffffffffffffff1660808173ffffffffffffffffffffffffffffffffffffffff1681525050508460a081815250508573ffffffffffffffffffffffffffffffffffffffff1660c08173ffffffffffffffffffffffffffffffffffffffff16815250508360e081815250508267ffffffffffffffff166101008167ffffffffffffffff16815250508163ffffffff166101208163ffffffff16815250506000600160006101000a81548160ff021916908360018111156200010d576200010c62000330565b5b0217905550426002819055508061014081815250505050505050506200035f565b600080fd5b600073ffffffffffffffffffffffffffffffffffffffff82169050919050565b6000620001608262000133565b9050919050565b620001728162000153565b81146200017e57600080fd5b50565b600081519050620001928162000167565b92915050565b6000819050919050565b620001ad8162000198565b8114620001b957600080fd5b50565b600081519050620001cd81620001a2565b92915050565b6000819050919050565b620001e881620001d3565b8114620001f457600080fd5b50565b6000815190506200020881620001dd565b92915050565b600067ffffffffffffffff82169050919050565b6200022d816200020e565b81146200023957600080fd5b50565b6000815190506200024d8162000222565b92915050565b600063ffffffff82169050919050565b6200026e8162000253565b81146200027a57600080fd5b50565b6000815190506200028e8162000263565b92915050565b60008060008060008060c08789031215620002b457620002b36200012e565b5b6000620002c489828a0162000181565b9650506020620002d789828a01620001bc565b9550506040620002ea89828a01620001f7565b9450506060620002fd89828a016200023c565b93505060806200031089828a016200027d565b92505060a06200032389828a01620001bc565b9150509295509295509295565b7f4e487b7100000000000000000000000000000000000000000000000000000000600052602160045260246000fd5b60805160a05160c05160e051610100516101205161014051611366620003c8600039600061071f015260006105a10152600061057e0152600061055d0152600061052101526000818161031d01526106b001526000818161025d01526102b101526113666000f3fe6080604052600436106100915760003560e01c8063473f1ddc11610059578063473f1ddc14610148578063535bf50f1461017357806353a2c19a1461019e5780636e04ff0d146101c9578063e55ae4e81461020757610091565b8063115cbaf5146100965780631fe543e3146100c15780632cfcc539146100ea578063320229eb146100f45780634585e33b1461011f575b600080fd5b3480156100a257600080fd5b506100ab610244565b6040516100b89190610b33565b60405180910390f35b3480156100cd57600080fd5b506100e860048036038101906100e39190610cf1565b61025b565b005b6100f261031b565b005b34801561010057600080fd5b5061010961048a565b6040516101169190610d5c565b60405180910390f35b34801561012b57600080fd5b5061014660048036038101906101419190610dd2565b610494565b005b34801561015457600080fd5b5061015d610684565b60405161016a9190610e60565b60405180910390f35b34801561017f57600080fd5b506101886106ac565b6040516101959190610d5c565b60405180910390f35b3480156101aa57600080fd5b506101b36106d4565b6040516101c09190610e9a565b60405180910390f35b3480156101d557600080fd5b506101f060048036038101906101eb9190610f6a565b6106dd565b6040516101fe92919061104d565b60405180910390f35b34801561021357600080fd5b5061022e6004803603810190610229919061107d565b61079e565b60405161023b9190610e60565b60405180910390f35b6000600160009054906101000a900460ff16905090565b7f000000000000000000000000000000000000000000000000000000000000000073ffffffffffffffffffffffffffffffffffffffff163373ffffffffffffffffffffffffffffffffffffffff161461030d57337f00000000000000000000000000000000000000000000000000000000000000006040517f1cf993f40000000000000000000000000000000000000000000000000000000081526004016103049291906110aa565b60405180910390fd5b61031782826107e5565b5050565b7f0000000000000000000000000000000000000000000000000000000000000000341015610375576040517f066d781f00000000000000000000000000000000000000000000000000000000815260040160405180910390fd5b6000600181111561038957610388610abc565b5b600160009054906101000a900460ff1660018111156103ab576103aa610abc565b5b146103e2576040517f9a54bc8300000000000000000000000000000000000000000000000000000000815260040160405180910390fd5b6000339080600181540180825580915050600190039060005260206000200160009091909190916101000a81548173ffffffffffffffffffffffffffffffffffffffff021916908373ffffffffffffffffffffffffffffffffffffffff1602179055503373ffffffffffffffffffffffffffffffffffffffff167f634f3211e3a4e43fee5a21ad9f87ca153b300fc78b1c557a2057dbe9c63bcb4760405160405180910390a2565b6000600254905090565b60006104ae604051806020016040528060008152506106dd565b5090508061051d5747600080549050600160009054906101000a900460ff1660018111156104df576104de610abc565b5b6040517f3a8d6086000000000000000000000000000000000000000000000000000000008152600401610514939291906110d3565b60405180910390fd5b60007f000000000000000000000000000000000000000000000000000000000000000073ffffffffffffffffffffffffffffffffffffffff16635d3b1d307f00000000000000000000000000000000000000000000000000000000000000007f000000000000000000000000000000000000000000000000000000000000000060037f000000000000000000000000000000000000000000000000000000000000000060016040518663ffffffff1660e01b81526004016105e2959493929190611163565b6020604051808303816000875af1158015610601573d6000803e3d6000fd5b505050506040513d601f19601f8201168201806040525081019061062591906111cb565b905060018060006101000a81548160ff0219169083600181111561064c5761064b610abc565b5b0217905550807fcd6e45c8998311cab7e9d4385596cac867e20a0587194b954fa3a731c93ce78b60405160405180910390a250505050565b600060018054906101000a900473ffffffffffffffffffffffffffffffffffffffff16905090565b60007f0000000000000000000000000000000000000000000000000000000000000000905090565b60006001905090565b6000606060008060018111156106f6576106f5610abc565b5b600160009054906101000a900460ff16600181111561071857610717610abc565b5b14905060007f00000000000000000000000000000000000000000000000000000000000000006002544261074c9190611227565b1190506000806000805490501190506000804711905083801561076c5750825b80156107755750805b801561077e5750815b955085604051806020016040528060008152509550955050505050915091565b60008082815481106107b3576107b261125b565b5b9060005260206000200160009054906101000a900473ffffffffffffffffffffffffffffffffffffffff169050919050565b6000808054905082600081518110610800576107ff61125b565b5b602002602001015161081291906112b9565b905060008082815481106108295761082861125b565b5b9060005260206000200160009054906101000a900473ffffffffffffffffffffffffffffffffffffffff169050806001806101000a81548173ffffffffffffffffffffffffffffffffffffffff021916908373ffffffffffffffffffffffffffffffffffffffff160217905550600067ffffffffffffffff8111156108b1576108b0610bae565b5b6040519080825280602002602001820160405280156108df5781602001602082028036833780820191505090505b50600090805190602001906108f5929190610a15565b504260028190555060008173ffffffffffffffffffffffffffffffffffffffff16476040516109239061131b565b60006040518083038185875af1925050503d8060008114610960576040519150601f19603f3d011682016040523d82523d6000602084013e610965565b606091505b50509050806109a0576040517fa1d04b3900000000000000000000000000000000000000000000000000000000815260040160405180910390fd5b6000600160006101000a81548160ff021916908360018111156109c6576109c5610abc565b5b02179055508173ffffffffffffffffffffffffffffffffffffffff167f5b690ec4a06fe979403046eaeea5b3ce38524683c3001f662c8b5a829632f7df60405160405180910390a25050505050565b828054828255906000526020600020908101928215610a8e579160200282015b82811115610a8d5782518260006101000a81548173ffffffffffffffffffffffffffffffffffffffff021916908373ffffffffffffffffffffffffffffffffffffffff16021790555091602001919060010190610a35565b5b509050610a9b9190610a9f565b5090565b5b80821115610ab8576000816000905550600101610aa0565b5090565b7f4e487b7100000000000000000000000000000000000000000000000000000000600052602160045260246000fd5b60028110610afc57610afb610abc565b5b50565b6000819050610b0d82610aeb565b919050565b6000610b1d82610aff565b9050919050565b610b2d81610b12565b82525050565b6000602082019050610b486000830184610b24565b92915050565b6000604051905090565b600080fd5b600080fd5b6000819050919050565b610b7581610b62565b8114610b8057600080fd5b50565b600081359050610b9281610b6c565b92915050565b600080fd5b6000601f19601f8301169050919050565b7f4e487b7100000000000000000000000000000000000000000000000000000000600052604160045260246000fd5b610be682610b9d565b810181811067ffffffffffffffff82111715610c0557610c04610bae565b5b80604052505050565b6000610c18610b4e565b9050610c248282610bdd565b919050565b600067ffffffffffffffff821115610c4457610c43610bae565b5b602082029050602081019050919050565b600080fd5b6000610c6d610c6884610c29565b610c0e565b90508083825260208201905060208402830185811115610c9057610c8f610c55565b5b835b81811015610cb95780610ca58882610b83565b845260208401935050602081019050610c92565b5050509392505050565b600082601f830112610cd857610cd7610b98565b5b8135610ce8848260208601610c5a565b91505092915050565b60008060408385031215610d0857610d07610b58565b5b6000610d1685828601610b83565b925050602083013567ffffffffffffffff811115610d3757610d36610b5d565b5b610d4385828601610cc3565b9150509250929050565b610d5681610b62565b82525050565b6000602082019050610d716000830184610d4d565b92915050565b600080fd5b60008083601f840112610d9257610d91610b98565b5b8235905067ffffffffffffffff811115610daf57610dae610d77565b5b602083019150836001820283011115610dcb57610dca610c55565b5b9250929050565b60008060208385031215610de957610de8610b58565b5b600083013567ffffffffffffffff811115610e0757610e06610b5d565b5b610e1385828601610d7c565b92509250509250929050565b600073ffffffffffffffffffffffffffffffffffffffff82169050919050565b6000610e4a82610e1f565b9050919050565b610e5a81610e3f565b82525050565b6000602082019050610e756000830184610e51565b92915050565b600063ffffffff82169050919050565b610e9481610e7b565b82525050565b6000602082019050610eaf6000830184610e8b565b92915050565b600080fd5b600067ffffffffffffffff821115610ed557610ed4610bae565b5b610ede82610b9d565b9050602081019050919050565b82818337600083830152505050565b6000610f0d610f0884610eba565b610c0e565b905082815260208101848484011115610f2957610f28610eb5565b5b610f34848285610eeb565b509392505050565b600082601f830112610f5157610f50610b98565b5b8135610f61848260208601610efa565b91505092915050565b600060208284031215610f8057610f7f610b58565b5b600082013567ffffffffffffffff811115610f9e57610f9d610b5d565b5b610faa84828501610f3c565b91505092915050565b60008115159050919050565b610fc881610fb3565b82525050565b600081519050919050565b600082825260208201905092915050565b60005b83811015611008578082015181840152602081019050610fed565b60008484015250505050565b600061101f82610fce565b6110298185610fd9565b9350611039818560208601610fea565b61104281610b9d565b840191505092915050565b60006040820190506110626000830185610fbf565b81810360208301526110748184611014565b90509392505050565b60006020828403121561109357611092610b58565b5b60006110a184828501610b83565b91505092915050565b60006040820190506110bf6000830185610e51565b6110cc6020830184610e51565b9392505050565b60006060820190506110e86000830186610d4d565b6110f56020830185610d4d565b6111026040830184610d4d565b949350505050565b6000819050919050565b61111d8161110a565b82525050565b600067ffffffffffffffff82169050919050565b61114081611123565b82525050565b600061ffff82169050919050565b61115d81611146565b82525050565b600060a0820190506111786000830188611114565b6111856020830187611137565b6111926040830186611154565b61119f6060830185610e8b565b6111ac6080830184610e8b565b9695505050505050565b6000815190506111c581610b6c565b92915050565b6000602082840312156111e1576111e0610b58565b5b60006111ef848285016111b6565b91505092915050565b7f4e487b7100000000000000000000000000000000000000000000000000000000600052601160045260246000fd5b600061123282610b62565b915061123d83610b62565b9250828203905081811115611255576112546111f8565b5b92915050565b7f4e487b7100000000000000000000000000000000000000000000000000000000600052603260045260246000fd5b7f4e487b7100000000000000000000000000000000000000000000000000000000600052601260045260246000fd5b60006112c482610b62565b91506112cf83610b62565b9250826112df576112de61128a565b5b828206905092915050565b600081905092915050565b50565b60006113056000836112ea565b9150611310826112f5565b600082019050919050565b6000611326826112f8565b915081905091905056fea2646970667358221220c01ae0f6f49a7ce734d699a2570f4671fad1c0d38d9b09a60b9284a485ebb23964736f6c63430008130033",
  "linkReferences": {},
  "deployedLinkReferences": {}
}