{
  "_format": "hh-sol-artifact-1",
  "contractName": "Raffle",
  "sourceName": "contracts/Raffle.sol",
  "abi": [
    {
      "inputs": [
        {
          "internalType": "address",
          "name": "_VRFCoordinator",
          "type": "address"
        },
        {
          "internalType": "uint256",
          "name": "enteranceFee",
          "type": "uint256"
        },
        {
          "internalType": "bytes32",
          "name": "gasLane",
          "type": "bytes32"
        },
        {
          "internalType": "uint64",
          "name": "subscriptionId",
          "type": "uint64"
        },
        {
          "internalType": "uint32",
          "name": "callbackGasLimit",
          "type": "uint32"
        },
        {
          "internalType": "uint256",
          "name": "interval",
          "type": "uint256"
        }
      ],
      "stateMutability": "nonpayable",
      "type": "constructor"
    },
    {
      "inputs": [
        {
          "internalType": "address",
          "name": "have",
          "type": "address"
        },
        {
          "internalType": "address",
          "name": "want",
          "type": "address"
        }
      ],
      "name": "OnlyCoordinatorCanFulfill",
      "type": "error"
    },
    {
      "inputs": [],
      "name": "Raffle__LotteryNotOpen",
      "type": "error"
    },
    {
      "inputs": [],
      "name": "Raffle__NotEnoughEthEntered",
      "type": "error"
    },
    {
      "inputs": [],
      "name": "Raffle__TransferFailed",
      "type": "error"
    },
    {
      "inputs": [
        {
          "internalType": "uint256",
          "name": "currentBalance",
          "type": "uint256"
        },
        {
          "internalType": "uint256",
          "name": "numPlayers",
          "type": "uint256"
        },
        {
          "internalType": "uint256",
          "name": "raffleState",
          "type": "uint256"
        }
      ],
      "name": "Raffle__UpKeepNotNeeded",
      "type": "error"
    },
    {
      "anonymous": false,
      "inputs": [
        {
          "indexed": true,
          "internalType": "address",
          "name": "player",
          "type": "address"
        }
      ],
      "name": "RaffleEntered",
      "type": "event"
    },
    {
      "anonymous": false,
      "inputs": [
        {
          "indexed": true,
          "internalType": "uint256",
          "name": "requestId",
          "type": "uint256"
        }
      ],
      "name": "RequestedRaffleWinner",
      "type": "event"
    },
    {
      "anonymous": false,
      "inputs": [
        {
          "indexed": true,
          "internalType": "address",
          "name": "winner",
          "type": "address"
        }
      ],
      "name": "WinnerPicked",
      "type": "event"
    },
    {
      "inputs": [
        {
          "internalType": "bytes",
          "name": "",
          "type": "bytes"
        }
      ],
      "name": "checkUpkeep",
      "outputs": [
        {
          "internalType": "bool",
          "name": "upkeepNeeded",
          "type": "bool"
        },
        {
          "internalType": "bytes",
          "name": "",
          "type": "bytes"
        }
      ],
      "stateMutability": "view",
      "type": "function"
    },
    {
      "inputs": [],
      "name": "enterRaffle",
      "outputs": [],
      "stateMutability": "payable",
      "type": "function"
    },
    {
      "inputs": [],
      "name": "getEnteranceFee",
      "outputs": [
        {
          "internalType": "uint256",
          "name": "",
          "type": "uint256"
        }
      ],
      "stateMutability": "view",
      "type": "function"
    },
    {
      "inputs": [],
      "name": "getLatestTimeStamp",
      "outputs": [
        {
          "internalType": "uint256",
          "name": "",
          "type": "uint256"
        }
      ],
      "stateMutability": "view",
      "type": "function"
    },
    {
      "inputs": [],
      "name": "getNumWords",
      "outputs": [
        {
          "internalType": "uint32",
          "name": "",
          "type": "uint32"
        }
      ],
      "stateMutability": "pure",
      "type": "function"
    },
    {
      "inputs": [
        {
          "internalType": "uint256",
          "name": "index",
          "type": "uint256"
        }
      ],
      "name": "getPlayer",
      "outputs": [
        {
          "internalType": "address",
          "name": "",
          "type": "address"
        }
      ],
      "stateMutability": "view",
      "type": "function"
    },
    {
      "inputs": [],
      "name": "getRaffleState",
      "outputs": [
        {
          "internalType": "enum Raffle.RaffleState",
          "name": "",
          "type": "uint8"
        }
      ],
      "stateMutability": "view",
      "type": "function"
    },
    {
      "inputs": [],
      "name": "getRecentWinner",
      "outputs": [
        {
          "internalType": "address",
          "name": "",
          "type": "address"
        }
      ],
      "stateMutability": "view",
      "type": "function"
    },
    {
      "inputs": [],
      "name": "getSubId",
      "outputs": [
        {
          "internalType": "uint64",
          "name": "",
          "type": "uint64"
        }
      ],
      "stateMutability": "view",
      "type": "function"
    },
    {
      "inputs": [
        {
          "internalType": "bytes",
          "name": "",
          "type": "bytes"
        }
      ],
      "name": "performUpkeep",
      "outputs": [],
      "stateMutability": "nonpayable",
      "type": "function"
    },
    {
      "inputs": [
        {
          "internalType": "uint256",
          "name": "requestId",
          "type": "uint256"
        },
        {
          "internalType": "uint256[]",
          "name": "randomWords",
          "type": "uint256[]"
        }
      ],
      "name": "rawFulfillRandomWords",
      "outputs": [],
      "stateMutability": "nonpayable",
      "type": "function"
    }
  ],
  "bytecode": "0x6101606040523480156200001257600080fd5b50604051620017ae380380620017ae833981810160405281019062000038919062000294565b858073ffffffffffffffffffffffffffffffffffffffff1660808173ffffffffffffffffffffffffffffffffffffffff1681525050508460a081815250508573ffffffffffffffffffffffffffffffffffffffff1660c08173ffffffffffffffffffffffffffffffffffffffff16815250508360e081815250508267ffffffffffffffff166101008167ffffffffffffffff16815250508163ffffffff166101208163ffffffff16815250506000600160006101000a81548160ff021916908360018111156200010d576200010c62000330565b5b0217905550426002819055508061014081815250505050505050506200035f565b600080fd5b600073ffffffffffffffffffffffffffffffffffffffff82169050919050565b6000620001608262000133565b9050919050565b620001728162000153565b81146200017e57600080fd5b50565b600081519050620001928162000167565b92915050565b6000819050919050565b620001ad8162000198565b8114620001b957600080fd5b50565b600081519050620001cd81620001a2565b92915050565b6000819050919050565b620001e881620001d3565b8114620001f457600080fd5b50565b6000815190506200020881620001dd565b92915050565b600067ffffffffffffffff82169050919050565b6200022d816200020e565b81146200023957600080fd5b50565b6000815190506200024d8162000222565b92915050565b600063ffffffff82169050919050565b6200026e8162000253565b81146200027a57600080fd5b50565b6000815190506200028e8162000263565b92915050565b60008060008060008060c08789031215620002b457620002b36200012e565b5b6000620002c489828a0162000181565b9650506020620002d789828a01620001bc565b9550506040620002ea89828a01620001f7565b9450506060620002fd89828a016200023c565b93505060806200031089828a016200027d565b92505060a06200032389828a01620001bc565b9150509295509295509295565b7f4e487b7100000000000000000000000000000000000000000000000000000000600052602160045260246000fd5b60805160a05160c05160e0516101005161012051610140516113df620003cf6000396000610755015260006106010152600081816105de015261081f015260006105bd0152600061058101526000818161035301526106e601526000818161029301526102e701526113df6000f3fe60806040526004361061009c5760003560e01c8063473f1ddc11610064578063473f1ddc14610153578063535bf50f1461017e57806353a2c19a146101a95780636e04ff0d146101d4578063e55ae4e814610212578063fbc6ba6f1461024f5761009c565b8063115cbaf5146100a15780631fe543e3146100cc5780632cfcc539146100f5578063320229eb146100ff5780634585e33b1461012a575b600080fd5b3480156100ad57600080fd5b506100b661027a565b6040516100c39190610b91565b60405180910390f35b3480156100d857600080fd5b506100f360048036038101906100ee9190610d4f565b610291565b005b6100fd610351565b005b34801561010b57600080fd5b506101146104c0565b6040516101219190610dba565b60405180910390f35b34801561013657600080fd5b50610151600480360381019061014c9190610e30565b6104ca565b005b34801561015f57600080fd5b506101686106ba565b6040516101759190610ebe565b60405180910390f35b34801561018a57600080fd5b506101936106e2565b6040516101a09190610dba565b60405180910390f35b3480156101b557600080fd5b506101be61070a565b6040516101cb9190610ef8565b60405180910390f35b3480156101e057600080fd5b506101fb60048036038101906101f69190610fc8565b610713565b6040516102099291906110ab565b60405180910390f35b34801561021e57600080fd5b50610239600480360381019061023491906110db565b6107d4565b6040516102469190610ebe565b60405180910390f35b34801561025b57600080fd5b5061026461081b565b604051610271919061112b565b60405180910390f35b6000600160009054906101000a900460ff16905090565b7f000000000000000000000000000000000000000000000000000000000000000073ffffffffffffffffffffffffffffffffffffffff163373ffffffffffffffffffffffffffffffffffffffff161461034357337f00000000000000000000000000000000000000000000000000000000000000006040517f1cf993f400000000000000000000000000000000000000000000000000000000815260040161033a929190611146565b60405180910390fd5b61034d8282610843565b5050565b7f00000000000000000000000000000000000000000000000000000000000000003410156103ab576040517f066d781f00000000000000000000000000000000000000000000000000000000815260040160405180910390fd5b600060018111156103bf576103be610b1a565b5b600160009054906101000a900460ff1660018111156103e1576103e0610b1a565b5b14610418576040517f9a54bc8300000000000000000000000000000000000000000000000000000000815260040160405180910390fd5b6000339080600181540180825580915050600190039060005260206000200160009091909190916101000a81548173ffffffffffffffffffffffffffffffffffffffff021916908373ffffffffffffffffffffffffffffffffffffffff1602179055503373ffffffffffffffffffffffffffffffffffffffff167f634f3211e3a4e43fee5a21ad9f87ca153b300fc78b1c557a2057dbe9c63bcb4760405160405180910390a2565b6000600254905090565b60006104e460405180602001604052806000815250610713565b509050806105535747600080549050600160009054906101000a900460ff16600181111561051557610514610b1a565b5b6040517f3a8d608600000000000000000000000000000000000000000000000000000000815260040161054a9392919061116f565b60405180910390fd5b60018060006101000a81548160ff0219169083600181111561057857610577610b1a565b5b021790555060007f000000000000000000000000000000000000000000000000000000000000000073ffffffffffffffffffffffffffffffffffffffff16635d3b1d307f00000000000000000000000000000000000000000000000000000000000000007f000000000000000000000000000000000000000000000000000000000000000060037f000000000000000000000000000000000000000000000000000000000000000060016040518663ffffffff1660e01b81526004016106429594939291906111dc565b6020604051808303816000875af1158015610661573d6000803e3d6000fd5b505050506040513d601f19601f820116820180604052508101906106859190611244565b9050807fcd6e45c8998311cab7e9d4385596cac867e20a0587194b954fa3a731c93ce78b60405160405180910390a250505050565b600060018054906101000a900473ffffffffffffffffffffffffffffffffffffffff16905090565b60007f0000000000000000000000000000000000000000000000000000000000000000905090565b60006001905090565b60006060600080600181111561072c5761072b610b1a565b5b600160009054906101000a900460ff16600181111561074e5761074d610b1a565b5b14905060007f00000000000000000000000000000000000000000000000000000000000000006002544261078291906112a0565b119050600080600080549050119050600080471190508380156107a25750825b80156107ab5750805b80156107b45750815b955085604051806020016040528060008152509550955050505050915091565b60008082815481106107e9576107e86112d4565b5b9060005260206000200160009054906101000a900473ffffffffffffffffffffffffffffffffffffffff169050919050565b60007f0000000000000000000000000000000000000000000000000000000000000000905090565b600080805490508260008151811061085e5761085d6112d4565b5b60200260200101516108709190611332565b90506000808281548110610887576108866112d4565b5b9060005260206000200160009054906101000a900473ffffffffffffffffffffffffffffffffffffffff169050806001806101000a81548173ffffffffffffffffffffffffffffffffffffffff021916908373ffffffffffffffffffffffffffffffffffffffff1602179055506000600160006101000a81548160ff0219169083600181111561091a57610919610b1a565b5b0217905550600067ffffffffffffffff81111561093a57610939610c0c565b5b6040519080825280602002602001820160405280156109685781602001602082028036833780820191505090505b506000908051906020019061097e929190610a73565b504260028190555060008173ffffffffffffffffffffffffffffffffffffffff16476040516109ac90611394565b60006040518083038185875af1925050503d80600081146109e9576040519150601f19603f3d011682016040523d82523d6000602084013e6109ee565b606091505b5050905080610a29576040517fa1d04b3900000000000000000000000000000000000000000000000000000000815260040160405180910390fd5b8173ffffffffffffffffffffffffffffffffffffffff167f5b690ec4a06fe979403046eaeea5b3ce38524683c3001f662c8b5a829632f7df60405160405180910390a25050505050565b828054828255906000526020600020908101928215610aec579160200282015b82811115610aeb5782518260006101000a81548173ffffffffffffffffffffffffffffffffffffffff021916908373ffffffffffffffffffffffffffffffffffffffff16021790555091602001919060010190610a93565b5b509050610af99190610afd565b5090565b5b80821115610b16576000816000905550600101610afe565b5090565b7f4e487b7100000000000000000000000000000000000000000000000000000000600052602160045260246000fd5b60028110610b5a57610b59610b1a565b5b50565b6000819050610b6b82610b49565b919050565b6000610b7b82610b5d565b9050919050565b610b8b81610b70565b82525050565b6000602082019050610ba66000830184610b82565b92915050565b6000604051905090565b600080fd5b600080fd5b6000819050919050565b610bd381610bc0565b8114610bde57600080fd5b50565b600081359050610bf081610bca565b92915050565b600080fd5b6000601f19601f8301169050919050565b7f4e487b7100000000000000000000000000000000000000000000000000000000600052604160045260246000fd5b610c4482610bfb565b810181811067ffffffffffffffff82111715610c6357610c62610c0c565b5b80604052505050565b6000610c76610bac565b9050610c828282610c3b565b919050565b600067ffffffffffffffff821115610ca257610ca1610c0c565b5b602082029050602081019050919050565b600080fd5b6000610ccb610cc684610c87565b610c6c565b90508083825260208201905060208402830185811115610cee57610ced610cb3565b5b835b81811015610d175780610d038882610be1565b845260208401935050602081019050610cf0565b5050509392505050565b600082601f830112610d3657610d35610bf6565b5b8135610d46848260208601610cb8565b91505092915050565b60008060408385031215610d6657610d65610bb6565b5b6000610d7485828601610be1565b925050602083013567ffffffffffffffff811115610d9557610d94610bbb565b5b610da185828601610d21565b9150509250929050565b610db481610bc0565b82525050565b6000602082019050610dcf6000830184610dab565b92915050565b600080fd5b60008083601f840112610df057610def610bf6565b5b8235905067ffffffffffffffff811115610e0d57610e0c610dd5565b5b602083019150836001820283011115610e2957610e28610cb3565b5b9250929050565b60008060208385031215610e4757610e46610bb6565b5b600083013567ffffffffffffffff811115610e6557610e64610bbb565b5b610e7185828601610dda565b92509250509250929050565b600073ffffffffffffffffffffffffffffffffffffffff82169050919050565b6000610ea882610e7d565b9050919050565b610eb881610e9d565b82525050565b6000602082019050610ed36000830184610eaf565b92915050565b600063ffffffff82169050919050565b610ef281610ed9565b82525050565b6000602082019050610f0d6000830184610ee9565b92915050565b600080fd5b600067ffffffffffffffff821115610f3357610f32610c0c565b5b610f3c82610bfb565b9050602081019050919050565b82818337600083830152505050565b6000610f6b610f6684610f18565b610c6c565b905082815260208101848484011115610f8757610f86610f13565b5b610f92848285610f49565b509392505050565b600082601f830112610faf57610fae610bf6565b5b8135610fbf848260208601610f58565b91505092915050565b600060208284031215610fde57610fdd610bb6565b5b600082013567ffffffffffffffff811115610ffc57610ffb610bbb565b5b61100884828501610f9a565b91505092915050565b60008115159050919050565b61102681611011565b82525050565b600081519050919050565b600082825260208201905092915050565b60005b8381101561106657808201518184015260208101905061104b565b60008484015250505050565b600061107d8261102c565b6110878185611037565b9350611097818560208601611048565b6110a081610bfb565b840191505092915050565b60006040820190506110c0600083018561101d565b81810360208301526110d28184611072565b90509392505050565b6000602082840312156110f1576110f0610bb6565b5b60006110ff84828501610be1565b91505092915050565b600067ffffffffffffffff82169050919050565b61112581611108565b82525050565b6000602082019050611140600083018461111c565b92915050565b600060408201905061115b6000830185610eaf565b6111686020830184610eaf565b9392505050565b60006060820190506111846000830186610dab565b6111916020830185610dab565b61119e6040830184610dab565b949350505050565b6000819050919050565b6111b9816111a6565b82525050565b600061ffff82169050919050565b6111d6816111bf565b82525050565b600060a0820190506111f160008301886111b0565b6111fe602083018761111c565b61120b60408301866111cd565b6112186060830185610ee9565b6112256080830184610ee9565b9695505050505050565b60008151905061123e81610bca565b92915050565b60006020828403121561125a57611259610bb6565b5b60006112688482850161122f565b91505092915050565b7f4e487b7100000000000000000000000000000000000000000000000000000000600052601160045260246000fd5b60006112ab82610bc0565b91506112b683610bc0565b92508282039050818111156112ce576112cd611271565b5b92915050565b7f4e487b7100000000000000000000000000000000000000000000000000000000600052603260045260246000fd5b7f4e487b7100000000000000000000000000000000000000000000000000000000600052601260045260246000fd5b600061133d82610bc0565b915061134883610bc0565b92508261135857611357611303565b5b828206905092915050565b600081905092915050565b50565b600061137e600083611363565b91506113898261136e565b600082019050919050565b600061139f82611371565b915081905091905056fea2646970667358221220f851f92ddfdea3c0aff4409949f7b8dac62632618cf6a3252b0ac5e849ef473764736f6c63430008130033",
  "linkReferences": {},
  "deployedLinkReferences": {}
}