{
  "_format": "hh-sol-artifact-1",
  "contractName": "Raffle",
  "sourceName": "contracts/Raffle.sol",
  "abi": [
    {
      "inputs": [
        {
          "internalType": "uint256",
          "name": "enteranceFee",
          "type": "uint256"
        },
        {
          "internalType": "address",
          "name": "_VRFCoordinator",
          "type": "address"
        },
        {
          "internalType": "bytes32",
          "name": "gasLane",
          "type": "bytes32"
        },
        {
          "internalType": "uint64",
          "name": "subscriptionId",
          "type": "uint64"
        },
        {
          "internalType": "uint32",
          "name": "callbackGasLimit",
          "type": "uint32"
        }
      ],
      "stateMutability": "nonpayable",
      "type": "constructor"
    },
    {
      "inputs": [
        {
          "internalType": "address",
          "name": "have",
          "type": "address"
        },
        {
          "internalType": "address",
          "name": "want",
          "type": "address"
        }
      ],
      "name": "OnlyCoordinatorCanFulfill",
      "type": "error"
    },
    {
      "inputs": [],
      "name": "Raffle__NotEnoughEthEntered",
      "type": "error"
    },
    {
      "inputs": [],
      "name": "Raffle__TransferFailed",
      "type": "error"
    },
    {
      "anonymous": false,
      "inputs": [
        {
          "indexed": true,
          "internalType": "address",
          "name": "player",
          "type": "address"
        }
      ],
      "name": "RaffleEntered",
      "type": "event"
    },
    {
      "anonymous": false,
      "inputs": [
        {
          "indexed": true,
          "internalType": "uint256",
          "name": "requestId",
          "type": "uint256"
        }
      ],
      "name": "RequestedRaffleWinner",
      "type": "event"
    },
    {
      "anonymous": false,
      "inputs": [
        {
          "indexed": true,
          "internalType": "address",
          "name": "winner",
          "type": "address"
        }
      ],
      "name": "WinnerPicked",
      "type": "event"
    },
    {
      "inputs": [],
      "name": "enterRaffle",
      "outputs": [],
      "stateMutability": "payable",
      "type": "function"
    },
    {
      "inputs": [],
      "name": "getEnteranceFee",
      "outputs": [
        {
          "internalType": "uint256",
          "name": "",
          "type": "uint256"
        }
      ],
      "stateMutability": "view",
      "type": "function"
    },
    {
      "inputs": [
        {
          "internalType": "uint256",
          "name": "index",
          "type": "uint256"
        }
      ],
      "name": "getPlayer",
      "outputs": [
        {
          "internalType": "address",
          "name": "",
          "type": "address"
        }
      ],
      "stateMutability": "view",
      "type": "function"
    },
    {
      "inputs": [],
      "name": "getRecentWinner",
      "outputs": [
        {
          "internalType": "address",
          "name": "",
          "type": "address"
        }
      ],
      "stateMutability": "view",
      "type": "function"
    },
    {
      "inputs": [
        {
          "internalType": "uint256",
          "name": "requestId",
          "type": "uint256"
        },
        {
          "internalType": "uint256[]",
          "name": "randomWords",
          "type": "uint256[]"
        }
      ],
      "name": "rawFulfillRandomWords",
      "outputs": [],
      "stateMutability": "nonpayable",
      "type": "function"
    },
    {
      "inputs": [],
      "name": "requestRandomWinner",
      "outputs": [
        {
          "internalType": "uint256",
          "name": "requestId",
          "type": "uint256"
        }
      ],
      "stateMutability": "nonpayable",
      "type": "function"
    }
  ],
  "bytecode": "0x6101406040523480156200001257600080fd5b5060405162000ead38038062000ead833981810160405281019062000038919062000255565b838073ffffffffffffffffffffffffffffffffffffffff1660808173ffffffffffffffffffffffffffffffffffffffff1681525050508460a081815250508373ffffffffffffffffffffffffffffffffffffffff1660c08173ffffffffffffffffffffffffffffffffffffffff16815250508260e081815250508167ffffffffffffffff166101008167ffffffffffffffff16815250508063ffffffff166101208163ffffffff16815250505050505050620002dd565b600080fd5b6000819050919050565b6200010981620000f4565b81146200011557600080fd5b50565b6000815190506200012981620000fe565b92915050565b600073ffffffffffffffffffffffffffffffffffffffff82169050919050565b60006200015c826200012f565b9050919050565b6200016e816200014f565b81146200017a57600080fd5b50565b6000815190506200018e8162000163565b92915050565b6000819050919050565b620001a98162000194565b8114620001b557600080fd5b50565b600081519050620001c9816200019e565b92915050565b600067ffffffffffffffff82169050919050565b620001ee81620001cf565b8114620001fa57600080fd5b50565b6000815190506200020e81620001e3565b92915050565b600063ffffffff82169050919050565b6200022f8162000214565b81146200023b57600080fd5b50565b6000815190506200024f8162000224565b92915050565b600080600080600060a08688031215620002745762000273620000ef565b5b6000620002848882890162000118565b955050602062000297888289016200017d565b9450506040620002aa88828901620001b8565b9350506060620002bd88828901620001fd565b9250506080620002d0888289016200023e565b9150509295509295909350565b60805160a05160c05160e0516101005161012051610b726200033b60003960006103bb01526000610398015260006103770152600061033b01526000818161020d015261047501526000818161014d01526101a10152610b726000f3fe6080604052600436106100555760003560e01c80631fe543e31461005a5780632cfcc53914610083578063473f1ddc1461008d578063522a1f0b146100b8578063535bf50f146100e3578063e55ae4e81461010e575b600080fd5b34801561006657600080fd5b50610081600480360381019061007c9190610822565b61014b565b005b61008b61020b565b005b34801561009957600080fd5b506100a261030d565b6040516100af91906108bf565b60405180910390f35b3480156100c457600080fd5b506100cd610337565b6040516100da91906108e9565b60405180910390f35b3480156100ef57600080fd5b506100f8610471565b60405161010591906108e9565b60405180910390f35b34801561011a57600080fd5b5061013560048036038101906101309190610904565b610499565b60405161014291906108bf565b60405180910390f35b7f000000000000000000000000000000000000000000000000000000000000000073ffffffffffffffffffffffffffffffffffffffff163373ffffffffffffffffffffffffffffffffffffffff16146101fd57337f00000000000000000000000000000000000000000000000000000000000000006040517f1cf993f40000000000000000000000000000000000000000000000000000000081526004016101f4929190610931565b60405180910390fd5b61020782826104e0565b5050565b7f0000000000000000000000000000000000000000000000000000000000000000341015610265576040517f066d781f00000000000000000000000000000000000000000000000000000000815260040160405180910390fd5b6000339080600181540180825580915050600190039060005260206000200160009091909190916101000a81548173ffffffffffffffffffffffffffffffffffffffff021916908373ffffffffffffffffffffffffffffffffffffffff1602179055503373ffffffffffffffffffffffffffffffffffffffff167f634f3211e3a4e43fee5a21ad9f87ca153b300fc78b1c557a2057dbe9c63bcb4760405160405180910390a2565b6000600160009054906101000a900473ffffffffffffffffffffffffffffffffffffffff16905090565b60007f000000000000000000000000000000000000000000000000000000000000000073ffffffffffffffffffffffffffffffffffffffff16635d3b1d307f00000000000000000000000000000000000000000000000000000000000000007f000000000000000000000000000000000000000000000000000000000000000060037f000000000000000000000000000000000000000000000000000000000000000060016040518663ffffffff1660e01b81526004016103fc9594939291906109d2565b6020604051808303816000875af115801561041b573d6000803e3d6000fd5b505050506040513d601f19601f8201168201806040525081019061043f9190610a3a565b9050807fcd6e45c8998311cab7e9d4385596cac867e20a0587194b954fa3a731c93ce78b60405160405180910390a290565b60007f0000000000000000000000000000000000000000000000000000000000000000905090565b60008082815481106104ae576104ad610a67565b5b9060005260206000200160009054906101000a900473ffffffffffffffffffffffffffffffffffffffff169050919050565b60008080549050826000815181106104fb576104fa610a67565b5b602002602001015161050d9190610ac5565b9050600080828154811061052457610523610a67565b5b9060005260206000200160009054906101000a900473ffffffffffffffffffffffffffffffffffffffff16905080600160006101000a81548173ffffffffffffffffffffffffffffffffffffffff021916908373ffffffffffffffffffffffffffffffffffffffff16021790555060008173ffffffffffffffffffffffffffffffffffffffff16476040516105b890610b27565b60006040518083038185875af1925050503d80600081146105f5576040519150601f19603f3d011682016040523d82523d6000602084013e6105fa565b606091505b5050905080610635576040517fa1d04b3900000000000000000000000000000000000000000000000000000000815260040160405180910390fd5b8173ffffffffffffffffffffffffffffffffffffffff167f5b690ec4a06fe979403046eaeea5b3ce38524683c3001f662c8b5a829632f7df60405160405180910390a25050505050565b6000604051905090565b600080fd5b600080fd5b6000819050919050565b6106a681610693565b81146106b157600080fd5b50565b6000813590506106c38161069d565b92915050565b600080fd5b6000601f19601f8301169050919050565b7f4e487b7100000000000000000000000000000000000000000000000000000000600052604160045260246000fd5b610717826106ce565b810181811067ffffffffffffffff82111715610736576107356106df565b5b80604052505050565b600061074961067f565b9050610755828261070e565b919050565b600067ffffffffffffffff821115610775576107746106df565b5b602082029050602081019050919050565b600080fd5b600061079e6107998461075a565b61073f565b905080838252602082019050602084028301858111156107c1576107c0610786565b5b835b818110156107ea57806107d688826106b4565b8452602084019350506020810190506107c3565b5050509392505050565b600082601f830112610809576108086106c9565b5b813561081984826020860161078b565b91505092915050565b6000806040838503121561083957610838610689565b5b6000610847858286016106b4565b925050602083013567ffffffffffffffff8111156108685761086761068e565b5b610874858286016107f4565b9150509250929050565b600073ffffffffffffffffffffffffffffffffffffffff82169050919050565b60006108a98261087e565b9050919050565b6108b98161089e565b82525050565b60006020820190506108d460008301846108b0565b92915050565b6108e381610693565b82525050565b60006020820190506108fe60008301846108da565b92915050565b60006020828403121561091a57610919610689565b5b6000610928848285016106b4565b91505092915050565b600060408201905061094660008301856108b0565b61095360208301846108b0565b9392505050565b6000819050919050565b61096d8161095a565b82525050565b600067ffffffffffffffff82169050919050565b61099081610973565b82525050565b600061ffff82169050919050565b6109ad81610996565b82525050565b600063ffffffff82169050919050565b6109cc816109b3565b82525050565b600060a0820190506109e76000830188610964565b6109f46020830187610987565b610a0160408301866109a4565b610a0e60608301856109c3565b610a1b60808301846109c3565b9695505050505050565b600081519050610a348161069d565b92915050565b600060208284031215610a5057610a4f610689565b5b6000610a5e84828501610a25565b91505092915050565b7f4e487b7100000000000000000000000000000000000000000000000000000000600052603260045260246000fd5b7f4e487b7100000000000000000000000000000000000000000000000000000000600052601260045260246000fd5b6000610ad082610693565b9150610adb83610693565b925082610aeb57610aea610a96565b5b828206905092915050565b600081905092915050565b50565b6000610b11600083610af6565b9150610b1c82610b01565b600082019050919050565b6000610b3282610b04565b915081905091905056fea26469706673582212204da5fc916458ca729d3686db1b0acb09d5580dd986279bd8e3cc486d93d551e864736f6c63430008130033",
  "linkReferences": {},
  "deployedLinkReferences": {}
}